{
	"data": {
		"bytecode": {
			"linkReferences": {},
			"object": "60806040523480156200001157600080fd5b5062000032620000266200003860201b60201c565b6200004060201b60201c565b62000142565b600033905090565b600160006101000a81549073ffffffffffffffffffffffffffffffffffffffff02191690556200007b816200007e60201b62001b061760201c565b50565b60008060009054906101000a900473ffffffffffffffffffffffffffffffffffffffff169050816000806101000a81548173ffffffffffffffffffffffffffffffffffffffff021916908373ffffffffffffffffffffffffffffffffffffffff1602179055508173ffffffffffffffffffffffffffffffffffffffff168173ffffffffffffffffffffffffffffffffffffffff167f8be0079c531659141344cd1fd0a4f28419497f9722a3daafe3b4186f6b6457e060405160405180910390a35050565b6121b580620001526000396000f3fe608060405234801561001057600080fd5b506004361061007d5760003560e01c8063d47875d01161005b578063d47875d0146100b4578063e30c3978146100e4578063e3f43fdb14610102578063f2fde38b1461011e5761007d565b8063715018a61461008257806379ba50971461008c5780638da5cb5b14610096575b600080fd5b61008a61013a565b005b61009461014e565b005b61009e6101db565b6040516100ab9190611cc2565b60405180910390f35b6100ce60048036038101906100c99190611d18565b610204565b6040516100db9190611d62565b60405180910390f35b6100ec6119e3565b6040516100f99190611cc2565b60405180910390f35b61011c60048036038101906101179190611d18565b611a0d565b005b61013860048036038101906101339190611d18565b611a59565b005b610142611bca565b61014c6000611c48565b565b6000610158611c79565b90508073ffffffffffffffffffffffffffffffffffffffff166101796119e3565b73ffffffffffffffffffffffffffffffffffffffff16146101cf576040517f08c379a00000000000000000000000000000000000000000000000000000000081526004016101c690611e00565b60405180910390fd5b6101d881611c48565b50565b60008060009054906101000a900473ffffffffffffffffffffffffffffffffffffffff16905090565b600080600260009054906101000a900473ffffffffffffffffffffffffffffffffffffffff1673ffffffffffffffffffffffffffffffffffffffff166366d13fb6846040518263ffffffff1660e01b81526004016102629190611cc2565b61016060405180830381865afa158015610280573d6000803e3d6000fd5b505050506040513d601f19601f820116820180604052508101906102a4919061201f565b9050600060028060009054906101000a900473ffffffffffffffffffffffffffffffffffffffff1673ffffffffffffffffffffffffffffffffffffffff16639445ae04866040518263ffffffff1660e01b81526004016103049190611cc2565b602060405180830381865afa158015610321573d6000803e3d6000fd5b505050506040513d601f19601f82011682018060405250810190610345919061204d565b61ffff16111561036357600f8161035c91906120a9565b90506105a8565b60028060009054906101000a900473ffffffffffffffffffffffffffffffffffffffff1673ffffffffffffffffffffffffffffffffffffffff16639445ae04866040518263ffffffff1660e01b81526004016103bf9190611cc2565b602060405180830381865afa1580156103dc573d6000803e3d6000fd5b505050506040513d601f19601f82011682018060405250810190610400919061204d565b61ffff160361041d57600a8161041691906120a9565b90506105a7565b6001600260009054906101000a900473ffffffffffffffffffffffffffffffffffffffff1673ffffffffffffffffffffffffffffffffffffffff16639445ae04866040518263ffffffff1660e01b815260040161047a9190611cc2565b602060405180830381865afa158015610497573d6000803e3d6000fd5b505050506040513d601f19601f820116820180604052508101906104bb919061204d565b61ffff16036104d8576005816104d191906120a9565b90506105a6565b601e826020015161ffff1611156104fd576000816104f691906120a9565b90506105a5565b6015826020015161ffff1611156105225760028161051b91906120a9565b90506105a4565b600d826020015161ffff1611156105475760048161054091906120a9565b90506105a3565b6007826020015161ffff16111561056c5760068161056591906120a9565b90506105a2565b6003826020015161ffff1611156105915760088161058a91906120a9565b90506105a1565b600a8161059e91906120a9565b90505b5b5b5b5b5b5b5b60028060009054906101000a900473ffffffffffffffffffffffffffffffffffffffff1673ffffffffffffffffffffffffffffffffffffffff16639445ae04866040518263ffffffff1660e01b81526004016106049190611cc2565b602060405180830381865afa158015610621573d6000803e3d6000fd5b505050506040513d601f19601f82011682018060405250810190610645919061204d565b61ffff1611156106635760148161065c91906120a9565b905061096a565b60028060009054906101000a900473ffffffffffffffffffffffffffffffffffffffff1673ffffffffffffffffffffffffffffffffffffffff16639445ae04866040518263ffffffff1660e01b81526004016106bf9190611cc2565b602060405180830381865afa1580156106dc573d6000803e3d6000fd5b505050506040513d601f19601f82011682018060405250810190610700919061204d565b61ffff160361071d57600f8161071691906120a9565b9050610969565b6001600260009054906101000a900473ffffffffffffffffffffffffffffffffffffffff1673ffffffffffffffffffffffffffffffffffffffff16639445ae04866040518263ffffffff1660e01b815260040161077a9190611cc2565b602060405180830381865afa158015610797573d6000803e3d6000fd5b505050506040513d601f19601f820116820180604052508101906107bb919061204d565b61ffff16036107d857600a816107d191906120a9565b9050610968565b6907695a92c20d6fe0000082606001511115610802576000816107fb91906120a9565b9050610967565b69054b40b1f852bda000008260600151111561082c5760038161082591906120a9565b9050610966565b6903635c9adc5dea000000826060015111156108565760068161084f91906120a9565b9050610965565b69028a857425466f800000826060015111156108805760088161087991906120a9565b9050610964565b6901e7e4171bf4d3a00000826060015111156108aa57600a816108a391906120a9565b9050610963565b69014542ba12a337c00000826060015111156108d457600c816108cd91906120a9565b9050610962565b68bdbc41e0348b300000826060015111156108fd57600e816108f691906120a9565b9050610961565b686c6b935b8bbd400000826060015111156109265760108161091f91906120a9565b9050610960565b681b1ae4d6e2ef5000008260600151111561094f5760128161094891906120a9565b905061095f565b60148161095c91906120a9565b90505b5b5b5b5b5b5b5b5b5b5b5b60028060009054906101000a900473ffffffffffffffffffffffffffffffffffffffff1673ffffffffffffffffffffffffffffffffffffffff16639445ae04866040518263ffffffff1660e01b81526004016109c69190611cc2565b602060405180830381865afa1580156109e3573d6000803e3d6000fd5b505050506040513d601f19601f82011682018060405250810190610a07919061204d565b61ffff161115610a2557600a81610a1e91906120a9565b9050610c6a565b60028060009054906101000a900473ffffffffffffffffffffffffffffffffffffffff1673ffffffffffffffffffffffffffffffffffffffff16639445ae04866040518263ffffffff1660e01b8152600401610a819190611cc2565b602060405180830381865afa158015610a9e573d6000803e3d6000fd5b505050506040513d601f19601f82011682018060405250810190610ac2919061204d565b61ffff1603610adf57600681610ad891906120a9565b9050610c69565b6001600260009054906101000a900473ffffffffffffffffffffffffffffffffffffffff1673ffffffffffffffffffffffffffffffffffffffff16639445ae04866040518263ffffffff1660e01b8152600401610b3c9190611cc2565b602060405180830381865afa158015610b59573d6000803e3d6000fd5b505050506040513d601f19601f82011682018060405250810190610b7d919061204d565b61ffff1603610b9a57600381610b9391906120a9565b9050610c68565b601a826000015161ffff161115610bbf57600081610bb891906120a9565b9050610c67565b6012826000015161ffff161115610be457600281610bdd91906120a9565b9050610c66565b600a826000015161ffff161115610c0957600481610c0291906120a9565b9050610c65565b6005826000015161ffff161115610c2e57600681610c2791906120a9565b9050610c64565b6002826000015161ffff161115610c5357600881610c4c91906120a9565b9050610c63565b600a81610c6091906120a9565b90505b5b5b5b5b5b5b5b60028060009054906101000a900473ffffffffffffffffffffffffffffffffffffffff1673ffffffffffffffffffffffffffffffffffffffff16639445ae04866040518263ffffffff1660e01b8152600401610cc69190611cc2565b602060405180830381865afa158015610ce3573d6000803e3d6000fd5b505050506040513d601f19601f82011682018060405250810190610d07919061204d565b61ffff161115610d2557600a81610d1e91906120a9565b905061102c565b60028060009054906101000a900473ffffffffffffffffffffffffffffffffffffffff1673ffffffffffffffffffffffffffffffffffffffff16639445ae04866040518263ffffffff1660e01b8152600401610d819190611cc2565b602060405180830381865afa158015610d9e573d6000803e3d6000fd5b505050506040513d601f19601f82011682018060405250810190610dc2919061204d565b61ffff1603610ddf57600881610dd891906120a9565b905061102b565b6001600260009054906101000a900473ffffffffffffffffffffffffffffffffffffffff1673ffffffffffffffffffffffffffffffffffffffff16639445ae04866040518263ffffffff1660e01b8152600401610e3c9190611cc2565b602060405180830381865afa158015610e59573d6000803e3d6000fd5b505050506040513d601f19601f82011682018060405250810190610e7d919061204d565b61ffff1603610e9a57600681610e9391906120a9565b905061102a565b6907695a92c20d6fe0000082604001511115610ec457600081610ebd91906120a9565b9050611029565b69054b40b1f852bda0000082604001511115610eee57600181610ee791906120a9565b9050611028565b6903635c9adc5dea00000082604001511115610f1857600281610f1191906120a9565b9050611027565b69028a857425466f80000082604001511115610f4257600381610f3b91906120a9565b9050611026565b6901e7e4171bf4d3a0000082604001511115610f6c57600481610f6591906120a9565b9050611025565b69014542ba12a337c0000082604001511115610f9657600681610f8f91906120a9565b9050611024565b68bdbc41e0348b30000082604001511115610fbf57600781610fb891906120a9565b9050611023565b686c6b935b8bbd40000082604001511115610fe857600881610fe191906120a9565b9050611022565b681b1ae4d6e2ef500000826040015111156110115760098161100a91906120a9565b9050611021565b600a8161101e91906120a9565b90505b5b5b5b5b5b5b5b5b5b5b5b60028060009054906101000a900473ffffffffffffffffffffffffffffffffffffffff1673ffffffffffffffffffffffffffffffffffffffff16639445ae04866040518263ffffffff1660e01b81526004016110889190611cc2565b602060405180830381865afa1580156110a5573d6000803e3d6000fd5b505050506040513d601f19601f820116820180604052508101906110c9919061204d565b61ffff1611156110e757600f816110e091906120a9565b90506113ee565b60028060009054906101000a900473ffffffffffffffffffffffffffffffffffffffff1673ffffffffffffffffffffffffffffffffffffffff16639445ae04866040518263ffffffff1660e01b81526004016111439190611cc2565b602060405180830381865afa158015611160573d6000803e3d6000fd5b505050506040513d601f19601f82011682018060405250810190611184919061204d565b61ffff16036111a157600a8161119a91906120a9565b90506113ed565b6001600260009054906101000a900473ffffffffffffffffffffffffffffffffffffffff1673ffffffffffffffffffffffffffffffffffffffff16639445ae04866040518263ffffffff1660e01b81526004016111fe9190611cc2565b602060405180830381865afa15801561121b573d6000803e3d6000fd5b505050506040513d601f19601f8201168201806040525081019061123f919061204d565b61ffff160361125c5760058161125591906120a9565b90506113ec565b6907695a92c20d6fe000008260a0015111156112865760008161127f91906120a9565b90506113eb565b69054b40b1f852bda000008260a0015111156112b0576001816112a991906120a9565b90506113ea565b6903635c9adc5dea0000008260a0015111156112da576002816112d391906120a9565b90506113e9565b69028a857425466f8000008260a001511115611304576003816112fd91906120a9565b90506113e8565b6901e7e4171bf4d3a000008260a00151111561132e5760058161132791906120a9565b90506113e7565b69014542ba12a337c000008260a0015111156113585760078161135191906120a9565b90506113e6565b68bdbc41e0348b3000008260a0015111156113815760098161137a91906120a9565b90506113e5565b686c6b935b8bbd4000008260a0015111156113aa57600b816113a391906120a9565b90506113e4565b681b1ae4d6e2ef5000008260a0015111156113d357600d816113cc91906120a9565b90506113e3565b600f816113e091906120a9565b90505b5b5b5b5b5b5b5b5b5b5b5b60028060009054906101000a900473ffffffffffffffffffffffffffffffffffffffff1673ffffffffffffffffffffffffffffffffffffffff16639445ae04866040518263ffffffff1660e01b815260040161144a9190611cc2565b602060405180830381865afa158015611467573d6000803e3d6000fd5b505050506040513d601f19601f8201168201806040525081019061148b919061204d565b61ffff1611156114a9576014816114a291906120a9565b90506117d1565b60028060009054906101000a900473ffffffffffffffffffffffffffffffffffffffff1673ffffffffffffffffffffffffffffffffffffffff16639445ae04866040518263ffffffff1660e01b81526004016115059190611cc2565b602060405180830381865afa158015611522573d6000803e3d6000fd5b505050506040513d601f19601f82011682018060405250810190611546919061204d565b61ffff160361156357600f8161155c91906120a9565b90506117d0565b6001600260009054906101000a900473ffffffffffffffffffffffffffffffffffffffff1673ffffffffffffffffffffffffffffffffffffffff16639445ae04866040518263ffffffff1660e01b81526004016115c09190611cc2565b602060405180830381865afa1580156115dd573d6000803e3d6000fd5b505050506040513d601f19601f82011682018060405250810190611601919061204d565b61ffff160361161e57600a8161161791906120a9565b90506117cf565b680821ab0d44149800008260c0015111156116475760008161164091906120a9565b90506117ce565b68068155a43676e000008260c0015111156116705760028161166991906120a9565b90506117cd565b68056bc75e2d631000008260c0015111156116995760048161169291906120a9565b90506117cc565b6804563918244f4000008260c0015111156116c2576006816116bb91906120a9565b90506117cb565b680340aad21b3b7000008260c0015111156116eb576008816116e491906120a9565b90506117ca565b680270801d946c9400008260c00151111561171457600a8161170d91906120a9565b90506117c9565b68015af1d78b58c400008260c00151111561173d57600c8161173691906120a9565b90506117c8565b67d02ab486cedc00008260c00151111561176557600e8161175e91906120a9565b90506117c7565b678ac7230489e800008260c00151111561178d5760108161178691906120a9565b90506117c6565b674563918244f400008260c0015111156117b5576012816117ae91906120a9565b90506117c5565b6014816117c291906120a9565b90505b5b5b5b5b5b5b5b5b5b5b5b5b60008260e0015161ffff16036117f5576000816117ee91906120a9565b905061184f565b60018260e0015161ffff160361181957600f8161181291906120a9565b905061184e565b60028260e0015161ffff160361183d5760198161183691906120a9565b905061184d565b60328161184a91906120a9565b90505b5b5b6000826101000151036118705760008161186991906120a9565b90506118d4565b6801158e460913d000008261010001511161189957600f8161189291906120a9565b90506118d3565b6802b5e3af16b1880000826101000151116118c2576019816118bb91906120a9565b90506118d2565b6032816118cf91906120a9565b90505b5b5b600042905060008360800151036118f9576005826118f291906120a9565b91506119d8565b8073ffffffffffffffffffffffffffffffffffffffff166213c680846080015161192391906120df565b111561193d5760008261193691906120a9565b91506119d7565b8073ffffffffffffffffffffffffffffffffffffffff166220f580846080015161196791906120df565b11156119815760048261197a91906120a9565b91506119d6565b8073ffffffffffffffffffffffffffffffffffffffff16623b538084608001516119ab91906120df565b11156119c5576007826119be91906120a9565b91506119d5565b600a826119d291906120a9565b91505b5b5b5b819350505050919050565b6000600160009054906101000a900473ffffffffffffffffffffffffffffffffffffffff16905090565b611a15611bca565b80600260006101000a81548173ffffffffffffffffffffffffffffffffffffffff021916908373ffffffffffffffffffffffffffffffffffffffff16021790555050565b611a61611bca565b80600160006101000a81548173ffffffffffffffffffffffffffffffffffffffff021916908373ffffffffffffffffffffffffffffffffffffffff1602179055508073ffffffffffffffffffffffffffffffffffffffff16611ac16101db565b73ffffffffffffffffffffffffffffffffffffffff167f38d16b8cac22d99fc7c124b9cd0de2d3fa1faef420bfe791d8c362d765e2270060405160405180910390a350565b60008060009054906101000a900473ffffffffffffffffffffffffffffffffffffffff169050816000806101000a81548173ffffffffffffffffffffffffffffffffffffffff021916908373ffffffffffffffffffffffffffffffffffffffff1602179055508173ffffffffffffffffffffffffffffffffffffffff168173ffffffffffffffffffffffffffffffffffffffff167f8be0079c531659141344cd1fd0a4f28419497f9722a3daafe3b4186f6b6457e060405160405180910390a35050565b611bd2611c79565b73ffffffffffffffffffffffffffffffffffffffff16611bf06101db565b73ffffffffffffffffffffffffffffffffffffffff1614611c46576040517f08c379a0000000000000000000000000000000000000000000000000000000008152600401611c3d9061215f565b60405180910390fd5b565b600160006101000a81549073ffffffffffffffffffffffffffffffffffffffff0219169055611c7681611b06565b50565b600033905090565b600073ffffffffffffffffffffffffffffffffffffffff82169050919050565b6000611cac82611c81565b9050919050565b611cbc81611ca1565b82525050565b6000602082019050611cd76000830184611cb3565b92915050565b6000604051905090565b600080fd5b611cf581611ca1565b8114611d0057600080fd5b50565b600081359050611d1281611cec565b92915050565b600060208284031215611d2e57611d2d611ce7565b5b6000611d3c84828501611d03565b91505092915050565b600061ffff82169050919050565b611d5c81611d45565b82525050565b6000602082019050611d776000830184611d53565b92915050565b600082825260208201905092915050565b7f4f776e61626c6532537465703a2063616c6c6572206973206e6f74207468652060008201527f6e6577206f776e65720000000000000000000000000000000000000000000000602082015250565b6000611dea602983611d7d565b9150611df582611d8e565b604082019050919050565b60006020820190508181036000830152611e1981611ddd565b9050919050565b600080fd5b6000601f19601f8301169050919050565b7f4e487b7100000000000000000000000000000000000000000000000000000000600052604160045260246000fd5b611e6e82611e25565b810181811067ffffffffffffffff82111715611e8d57611e8c611e36565b5b80604052505050565b6000611ea0611cdd565b9050611eac8282611e65565b919050565b611eba81611d45565b8114611ec557600080fd5b50565b600081519050611ed781611eb1565b92915050565b6000819050919050565b611ef081611edd565b8114611efb57600080fd5b50565b600081519050611f0d81611ee7565b92915050565b60006101608284031215611f2a57611f29611e20565b5b611f35610160611e96565b90506000611f4584828501611ec8565b6000830152506020611f5984828501611ec8565b6020830152506040611f6d84828501611efe565b6040830152506060611f8184828501611efe565b6060830152506080611f9584828501611efe565b60808301525060a0611fa984828501611efe565b60a08301525060c0611fbd84828501611efe565b60c08301525060e0611fd184828501611ec8565b60e083015250610100611fe684828501611efe565b61010083015250610120611ffc84828501611efe565b6101208301525061014061201284828501611ec8565b6101408301525092915050565b6000610160828403121561203657612035611ce7565b5b600061204484828501611f13565b91505092915050565b60006020828403121561206357612062611ce7565b5b600061207184828501611ec8565b91505092915050565b7f4e487b7100000000000000000000000000000000000000000000000000000000600052601160045260246000fd5b60006120b482611d45565b91506120bf83611d45565b9250828201905061ffff8111156120d9576120d861207a565b5b92915050565b60006120ea82611edd565b91506120f583611edd565b925082820190508082111561210d5761210c61207a565b5b92915050565b7f4f776e61626c653a2063616c6c6572206973206e6f7420746865206f776e6572600082015250565b6000612149602083611d7d565b915061215482612113565b602082019050919050565b600060208201905081810360008301526121788161213c565b905091905056fea264697066735822122007c8ce304e7d56d2d932251a5be9e17b340e8a910228c869a8050fed26eeed3c64736f6c63430008120033",
			"opcodes": "PUSH1 0x80 PUSH1 0x40 MSTORE CALLVALUE DUP1 ISZERO PUSH3 0x11 JUMPI PUSH1 0x0 DUP1 REVERT JUMPDEST POP PUSH3 0x32 PUSH3 0x26 PUSH3 0x38 PUSH1 0x20 SHL PUSH1 0x20 SHR JUMP JUMPDEST PUSH3 0x40 PUSH1 0x20 SHL PUSH1 0x20 SHR JUMP JUMPDEST PUSH3 0x142 JUMP JUMPDEST PUSH1 0x0 CALLER SWAP1 POP SWAP1 JUMP JUMPDEST PUSH1 0x1 PUSH1 0x0 PUSH2 0x100 EXP DUP2 SLOAD SWAP1 PUSH20 0xFFFFFFFFFFFFFFFFFFFFFFFFFFFFFFFFFFFFFFFF MUL NOT AND SWAP1 SSTORE PUSH3 0x7B DUP2 PUSH3 0x7E PUSH1 0x20 SHL PUSH3 0x1B06 OR PUSH1 0x20 SHR JUMP JUMPDEST POP JUMP JUMPDEST PUSH1 0x0 DUP1 PUSH1 0x0 SWAP1 SLOAD SWAP1 PUSH2 0x100 EXP SWAP1 DIV PUSH20 0xFFFFFFFFFFFFFFFFFFFFFFFFFFFFFFFFFFFFFFFF AND SWAP1 POP DUP2 PUSH1 0x0 DUP1 PUSH2 0x100 EXP DUP2 SLOAD DUP2 PUSH20 0xFFFFFFFFFFFFFFFFFFFFFFFFFFFFFFFFFFFFFFFF MUL NOT AND SWAP1 DUP4 PUSH20 0xFFFFFFFFFFFFFFFFFFFFFFFFFFFFFFFFFFFFFFFF AND MUL OR SWAP1 SSTORE POP DUP2 PUSH20 0xFFFFFFFFFFFFFFFFFFFFFFFFFFFFFFFFFFFFFFFF AND DUP2 PUSH20 0xFFFFFFFFFFFFFFFFFFFFFFFFFFFFFFFFFFFFFFFF AND PUSH32 0x8BE0079C531659141344CD1FD0A4F28419497F9722A3DAAFE3B4186F6B6457E0 PUSH1 0x40 MLOAD PUSH1 0x40 MLOAD DUP1 SWAP2 SUB SWAP1 LOG3 POP POP JUMP JUMPDEST PUSH2 0x21B5 DUP1 PUSH3 0x152 PUSH1 0x0 CODECOPY PUSH1 0x0 RETURN INVALID PUSH1 0x80 PUSH1 0x40 MSTORE CALLVALUE DUP1 ISZERO PUSH2 0x10 JUMPI PUSH1 0x0 DUP1 REVERT JUMPDEST POP PUSH1 0x4 CALLDATASIZE LT PUSH2 0x7D JUMPI PUSH1 0x0 CALLDATALOAD PUSH1 0xE0 SHR DUP1 PUSH4 0xD47875D0 GT PUSH2 0x5B JUMPI DUP1 PUSH4 0xD47875D0 EQ PUSH2 0xB4 JUMPI DUP1 PUSH4 0xE30C3978 EQ PUSH2 0xE4 JUMPI DUP1 PUSH4 0xE3F43FDB EQ PUSH2 0x102 JUMPI DUP1 PUSH4 0xF2FDE38B EQ PUSH2 0x11E JUMPI PUSH2 0x7D JUMP JUMPDEST DUP1 PUSH4 0x715018A6 EQ PUSH2 0x82 JUMPI DUP1 PUSH4 0x79BA5097 EQ PUSH2 0x8C JUMPI DUP1 PUSH4 0x8DA5CB5B EQ PUSH2 0x96 JUMPI JUMPDEST PUSH1 0x0 DUP1 REVERT JUMPDEST PUSH2 0x8A PUSH2 0x13A JUMP JUMPDEST STOP JUMPDEST PUSH2 0x94 PUSH2 0x14E JUMP JUMPDEST STOP JUMPDEST PUSH2 0x9E PUSH2 0x1DB JUMP JUMPDEST PUSH1 0x40 MLOAD PUSH2 0xAB SWAP2 SWAP1 PUSH2 0x1CC2 JUMP JUMPDEST PUSH1 0x40 MLOAD DUP1 SWAP2 SUB SWAP1 RETURN JUMPDEST PUSH2 0xCE PUSH1 0x4 DUP1 CALLDATASIZE SUB DUP2 ADD SWAP1 PUSH2 0xC9 SWAP2 SWAP1 PUSH2 0x1D18 JUMP JUMPDEST PUSH2 0x204 JUMP JUMPDEST PUSH1 0x40 MLOAD PUSH2 0xDB SWAP2 SWAP1 PUSH2 0x1D62 JUMP JUMPDEST PUSH1 0x40 MLOAD DUP1 SWAP2 SUB SWAP1 RETURN JUMPDEST PUSH2 0xEC PUSH2 0x19E3 JUMP JUMPDEST PUSH1 0x40 MLOAD PUSH2 0xF9 SWAP2 SWAP1 PUSH2 0x1CC2 JUMP JUMPDEST PUSH1 0x40 MLOAD DUP1 SWAP2 SUB SWAP1 RETURN JUMPDEST PUSH2 0x11C PUSH1 0x4 DUP1 CALLDATASIZE SUB DUP2 ADD SWAP1 PUSH2 0x117 SWAP2 SWAP1 PUSH2 0x1D18 JUMP JUMPDEST PUSH2 0x1A0D JUMP JUMPDEST STOP JUMPDEST PUSH2 0x138 PUSH1 0x4 DUP1 CALLDATASIZE SUB DUP2 ADD SWAP1 PUSH2 0x133 SWAP2 SWAP1 PUSH2 0x1D18 JUMP JUMPDEST PUSH2 0x1A59 JUMP JUMPDEST STOP JUMPDEST PUSH2 0x142 PUSH2 0x1BCA JUMP JUMPDEST PUSH2 0x14C PUSH1 0x0 PUSH2 0x1C48 JUMP JUMPDEST JUMP JUMPDEST PUSH1 0x0 PUSH2 0x158 PUSH2 0x1C79 JUMP JUMPDEST SWAP1 POP DUP1 PUSH20 0xFFFFFFFFFFFFFFFFFFFFFFFFFFFFFFFFFFFFFFFF AND PUSH2 0x179 PUSH2 0x19E3 JUMP JUMPDEST PUSH20 0xFFFFFFFFFFFFFFFFFFFFFFFFFFFFFFFFFFFFFFFF AND EQ PUSH2 0x1CF JUMPI PUSH1 0x40 MLOAD PUSH32 0x8C379A000000000000000000000000000000000000000000000000000000000 DUP2 MSTORE PUSH1 0x4 ADD PUSH2 0x1C6 SWAP1 PUSH2 0x1E00 JUMP JUMPDEST PUSH1 0x40 MLOAD DUP1 SWAP2 SUB SWAP1 REVERT JUMPDEST PUSH2 0x1D8 DUP2 PUSH2 0x1C48 JUMP JUMPDEST POP JUMP JUMPDEST PUSH1 0x0 DUP1 PUSH1 0x0 SWAP1 SLOAD SWAP1 PUSH2 0x100 EXP SWAP1 DIV PUSH20 0xFFFFFFFFFFFFFFFFFFFFFFFFFFFFFFFFFFFFFFFF AND SWAP1 POP SWAP1 JUMP JUMPDEST PUSH1 0x0 DUP1 PUSH1 0x2 PUSH1 0x0 SWAP1 SLOAD SWAP1 PUSH2 0x100 EXP SWAP1 DIV PUSH20 0xFFFFFFFFFFFFFFFFFFFFFFFFFFFFFFFFFFFFFFFF AND PUSH20 0xFFFFFFFFFFFFFFFFFFFFFFFFFFFFFFFFFFFFFFFF AND PUSH4 0x66D13FB6 DUP5 PUSH1 0x40 MLOAD DUP3 PUSH4 0xFFFFFFFF AND PUSH1 0xE0 SHL DUP2 MSTORE PUSH1 0x4 ADD PUSH2 0x262 SWAP2 SWAP1 PUSH2 0x1CC2 JUMP JUMPDEST PUSH2 0x160 PUSH1 0x40 MLOAD DUP1 DUP4 SUB DUP2 DUP7 GAS STATICCALL ISZERO DUP1 ISZERO PUSH2 0x280 JUMPI RETURNDATASIZE PUSH1 0x0 DUP1 RETURNDATACOPY RETURNDATASIZE PUSH1 0x0 REVERT JUMPDEST POP POP POP POP PUSH1 0x40 MLOAD RETURNDATASIZE PUSH1 0x1F NOT PUSH1 0x1F DUP3 ADD AND DUP3 ADD DUP1 PUSH1 0x40 MSTORE POP DUP2 ADD SWAP1 PUSH2 0x2A4 SWAP2 SWAP1 PUSH2 0x201F JUMP JUMPDEST SWAP1 POP PUSH1 0x0 PUSH1 0x2 DUP1 PUSH1 0x0 SWAP1 SLOAD SWAP1 PUSH2 0x100 EXP SWAP1 DIV PUSH20 0xFFFFFFFFFFFFFFFFFFFFFFFFFFFFFFFFFFFFFFFF AND PUSH20 0xFFFFFFFFFFFFFFFFFFFFFFFFFFFFFFFFFFFFFFFF AND PUSH4 0x9445AE04 DUP7 PUSH1 0x40 MLOAD DUP3 PUSH4 0xFFFFFFFF AND PUSH1 0xE0 SHL DUP2 MSTORE PUSH1 0x4 ADD PUSH2 0x304 SWAP2 SWAP1 PUSH2 0x1CC2 JUMP JUMPDEST PUSH1 0x20 PUSH1 0x40 MLOAD DUP1 DUP4 SUB DUP2 DUP7 GAS STATICCALL ISZERO DUP1 ISZERO PUSH2 0x321 JUMPI RETURNDATASIZE PUSH1 0x0 DUP1 RETURNDATACOPY RETURNDATASIZE PUSH1 0x0 REVERT JUMPDEST POP POP POP POP PUSH1 0x40 MLOAD RETURNDATASIZE PUSH1 0x1F NOT PUSH1 0x1F DUP3 ADD AND DUP3 ADD DUP1 PUSH1 0x40 MSTORE POP DUP2 ADD SWAP1 PUSH2 0x345 SWAP2 SWAP1 PUSH2 0x204D JUMP JUMPDEST PUSH2 0xFFFF AND GT ISZERO PUSH2 0x363 JUMPI PUSH1 0xF DUP2 PUSH2 0x35C SWAP2 SWAP1 PUSH2 0x20A9 JUMP JUMPDEST SWAP1 POP PUSH2 0x5A8 JUMP JUMPDEST PUSH1 0x2 DUP1 PUSH1 0x0 SWAP1 SLOAD SWAP1 PUSH2 0x100 EXP SWAP1 DIV PUSH20 0xFFFFFFFFFFFFFFFFFFFFFFFFFFFFFFFFFFFFFFFF AND PUSH20 0xFFFFFFFFFFFFFFFFFFFFFFFFFFFFFFFFFFFFFFFF AND PUSH4 0x9445AE04 DUP7 PUSH1 0x40 MLOAD DUP3 PUSH4 0xFFFFFFFF AND PUSH1 0xE0 SHL DUP2 MSTORE PUSH1 0x4 ADD PUSH2 0x3BF SWAP2 SWAP1 PUSH2 0x1CC2 JUMP JUMPDEST PUSH1 0x20 PUSH1 0x40 MLOAD DUP1 DUP4 SUB DUP2 DUP7 GAS STATICCALL ISZERO DUP1 ISZERO PUSH2 0x3DC JUMPI RETURNDATASIZE PUSH1 0x0 DUP1 RETURNDATACOPY RETURNDATASIZE PUSH1 0x0 REVERT JUMPDEST POP POP POP POP PUSH1 0x40 MLOAD RETURNDATASIZE PUSH1 0x1F NOT PUSH1 0x1F DUP3 ADD AND DUP3 ADD DUP1 PUSH1 0x40 MSTORE POP DUP2 ADD SWAP1 PUSH2 0x400 SWAP2 SWAP1 PUSH2 0x204D JUMP JUMPDEST PUSH2 0xFFFF AND SUB PUSH2 0x41D JUMPI PUSH1 0xA DUP2 PUSH2 0x416 SWAP2 SWAP1 PUSH2 0x20A9 JUMP JUMPDEST SWAP1 POP PUSH2 0x5A7 JUMP JUMPDEST PUSH1 0x1 PUSH1 0x2 PUSH1 0x0 SWAP1 SLOAD SWAP1 PUSH2 0x100 EXP SWAP1 DIV PUSH20 0xFFFFFFFFFFFFFFFFFFFFFFFFFFFFFFFFFFFFFFFF AND PUSH20 0xFFFFFFFFFFFFFFFFFFFFFFFFFFFFFFFFFFFFFFFF AND PUSH4 0x9445AE04 DUP7 PUSH1 0x40 MLOAD DUP3 PUSH4 0xFFFFFFFF AND PUSH1 0xE0 SHL DUP2 MSTORE PUSH1 0x4 ADD PUSH2 0x47A SWAP2 SWAP1 PUSH2 0x1CC2 JUMP JUMPDEST PUSH1 0x20 PUSH1 0x40 MLOAD DUP1 DUP4 SUB DUP2 DUP7 GAS STATICCALL ISZERO DUP1 ISZERO PUSH2 0x497 JUMPI RETURNDATASIZE PUSH1 0x0 DUP1 RETURNDATACOPY RETURNDATASIZE PUSH1 0x0 REVERT JUMPDEST POP POP POP POP PUSH1 0x40 MLOAD RETURNDATASIZE PUSH1 0x1F NOT PUSH1 0x1F DUP3 ADD AND DUP3 ADD DUP1 PUSH1 0x40 MSTORE POP DUP2 ADD SWAP1 PUSH2 0x4BB SWAP2 SWAP1 PUSH2 0x204D JUMP JUMPDEST PUSH2 0xFFFF AND SUB PUSH2 0x4D8 JUMPI PUSH1 0x5 DUP2 PUSH2 0x4D1 SWAP2 SWAP1 PUSH2 0x20A9 JUMP JUMPDEST SWAP1 POP PUSH2 0x5A6 JUMP JUMPDEST PUSH1 0x1E DUP3 PUSH1 0x20 ADD MLOAD PUSH2 0xFFFF AND GT ISZERO PUSH2 0x4FD JUMPI PUSH1 0x0 DUP2 PUSH2 0x4F6 SWAP2 SWAP1 PUSH2 0x20A9 JUMP JUMPDEST SWAP1 POP PUSH2 0x5A5 JUMP JUMPDEST PUSH1 0x15 DUP3 PUSH1 0x20 ADD MLOAD PUSH2 0xFFFF AND GT ISZERO PUSH2 0x522 JUMPI PUSH1 0x2 DUP2 PUSH2 0x51B SWAP2 SWAP1 PUSH2 0x20A9 JUMP JUMPDEST SWAP1 POP PUSH2 0x5A4 JUMP JUMPDEST PUSH1 0xD DUP3 PUSH1 0x20 ADD MLOAD PUSH2 0xFFFF AND GT ISZERO PUSH2 0x547 JUMPI PUSH1 0x4 DUP2 PUSH2 0x540 SWAP2 SWAP1 PUSH2 0x20A9 JUMP JUMPDEST SWAP1 POP PUSH2 0x5A3 JUMP JUMPDEST PUSH1 0x7 DUP3 PUSH1 0x20 ADD MLOAD PUSH2 0xFFFF AND GT ISZERO PUSH2 0x56C JUMPI PUSH1 0x6 DUP2 PUSH2 0x565 SWAP2 SWAP1 PUSH2 0x20A9 JUMP JUMPDEST SWAP1 POP PUSH2 0x5A2 JUMP JUMPDEST PUSH1 0x3 DUP3 PUSH1 0x20 ADD MLOAD PUSH2 0xFFFF AND GT ISZERO PUSH2 0x591 JUMPI PUSH1 0x8 DUP2 PUSH2 0x58A SWAP2 SWAP1 PUSH2 0x20A9 JUMP JUMPDEST SWAP1 POP PUSH2 0x5A1 JUMP JUMPDEST PUSH1 0xA DUP2 PUSH2 0x59E SWAP2 SWAP1 PUSH2 0x20A9 JUMP JUMPDEST SWAP1 POP JUMPDEST JUMPDEST JUMPDEST JUMPDEST JUMPDEST JUMPDEST JUMPDEST JUMPDEST PUSH1 0x2 DUP1 PUSH1 0x0 SWAP1 SLOAD SWAP1 PUSH2 0x100 EXP SWAP1 DIV PUSH20 0xFFFFFFFFFFFFFFFFFFFFFFFFFFFFFFFFFFFFFFFF AND PUSH20 0xFFFFFFFFFFFFFFFFFFFFFFFFFFFFFFFFFFFFFFFF AND PUSH4 0x9445AE04 DUP7 PUSH1 0x40 MLOAD DUP3 PUSH4 0xFFFFFFFF AND PUSH1 0xE0 SHL DUP2 MSTORE PUSH1 0x4 ADD PUSH2 0x604 SWAP2 SWAP1 PUSH2 0x1CC2 JUMP JUMPDEST PUSH1 0x20 PUSH1 0x40 MLOAD DUP1 DUP4 SUB DUP2 DUP7 GAS STATICCALL ISZERO DUP1 ISZERO PUSH2 0x621 JUMPI RETURNDATASIZE PUSH1 0x0 DUP1 RETURNDATACOPY RETURNDATASIZE PUSH1 0x0 REVERT JUMPDEST POP POP POP POP PUSH1 0x40 MLOAD RETURNDATASIZE PUSH1 0x1F NOT PUSH1 0x1F DUP3 ADD AND DUP3 ADD DUP1 PUSH1 0x40 MSTORE POP DUP2 ADD SWAP1 PUSH2 0x645 SWAP2 SWAP1 PUSH2 0x204D JUMP JUMPDEST PUSH2 0xFFFF AND GT ISZERO PUSH2 0x663 JUMPI PUSH1 0x14 DUP2 PUSH2 0x65C SWAP2 SWAP1 PUSH2 0x20A9 JUMP JUMPDEST SWAP1 POP PUSH2 0x96A JUMP JUMPDEST PUSH1 0x2 DUP1 PUSH1 0x0 SWAP1 SLOAD SWAP1 PUSH2 0x100 EXP SWAP1 DIV PUSH20 0xFFFFFFFFFFFFFFFFFFFFFFFFFFFFFFFFFFFFFFFF AND PUSH20 0xFFFFFFFFFFFFFFFFFFFFFFFFFFFFFFFFFFFFFFFF AND PUSH4 0x9445AE04 DUP7 PUSH1 0x40 MLOAD DUP3 PUSH4 0xFFFFFFFF AND PUSH1 0xE0 SHL DUP2 MSTORE PUSH1 0x4 ADD PUSH2 0x6BF SWAP2 SWAP1 PUSH2 0x1CC2 JUMP JUMPDEST PUSH1 0x20 PUSH1 0x40 MLOAD DUP1 DUP4 SUB DUP2 DUP7 GAS STATICCALL ISZERO DUP1 ISZERO PUSH2 0x6DC JUMPI RETURNDATASIZE PUSH1 0x0 DUP1 RETURNDATACOPY RETURNDATASIZE PUSH1 0x0 REVERT JUMPDEST POP POP POP POP PUSH1 0x40 MLOAD RETURNDATASIZE PUSH1 0x1F NOT PUSH1 0x1F DUP3 ADD AND DUP3 ADD DUP1 PUSH1 0x40 MSTORE POP DUP2 ADD SWAP1 PUSH2 0x700 SWAP2 SWAP1 PUSH2 0x204D JUMP JUMPDEST PUSH2 0xFFFF AND SUB PUSH2 0x71D JUMPI PUSH1 0xF DUP2 PUSH2 0x716 SWAP2 SWAP1 PUSH2 0x20A9 JUMP JUMPDEST SWAP1 POP PUSH2 0x969 JUMP JUMPDEST PUSH1 0x1 PUSH1 0x2 PUSH1 0x0 SWAP1 SLOAD SWAP1 PUSH2 0x100 EXP SWAP1 DIV PUSH20 0xFFFFFFFFFFFFFFFFFFFFFFFFFFFFFFFFFFFFFFFF AND PUSH20 0xFFFFFFFFFFFFFFFFFFFFFFFFFFFFFFFFFFFFFFFF AND PUSH4 0x9445AE04 DUP7 PUSH1 0x40 MLOAD DUP3 PUSH4 0xFFFFFFFF AND PUSH1 0xE0 SHL DUP2 MSTORE PUSH1 0x4 ADD PUSH2 0x77A SWAP2 SWAP1 PUSH2 0x1CC2 JUMP JUMPDEST PUSH1 0x20 PUSH1 0x40 MLOAD DUP1 DUP4 SUB DUP2 DUP7 GAS STATICCALL ISZERO DUP1 ISZERO PUSH2 0x797 JUMPI RETURNDATASIZE PUSH1 0x0 DUP1 RETURNDATACOPY RETURNDATASIZE PUSH1 0x0 REVERT JUMPDEST POP POP POP POP PUSH1 0x40 MLOAD RETURNDATASIZE PUSH1 0x1F NOT PUSH1 0x1F DUP3 ADD AND DUP3 ADD DUP1 PUSH1 0x40 MSTORE POP DUP2 ADD SWAP1 PUSH2 0x7BB SWAP2 SWAP1 PUSH2 0x204D JUMP JUMPDEST PUSH2 0xFFFF AND SUB PUSH2 0x7D8 JUMPI PUSH1 0xA DUP2 PUSH2 0x7D1 SWAP2 SWAP1 PUSH2 0x20A9 JUMP JUMPDEST SWAP1 POP PUSH2 0x968 JUMP JUMPDEST PUSH10 0x7695A92C20D6FE00000 DUP3 PUSH1 0x60 ADD MLOAD GT ISZERO PUSH2 0x802 JUMPI PUSH1 0x0 DUP2 PUSH2 0x7FB SWAP2 SWAP1 PUSH2 0x20A9 JUMP JUMPDEST SWAP1 POP PUSH2 0x967 JUMP JUMPDEST PUSH10 0x54B40B1F852BDA00000 DUP3 PUSH1 0x60 ADD MLOAD GT ISZERO PUSH2 0x82C JUMPI PUSH1 0x3 DUP2 PUSH2 0x825 SWAP2 SWAP1 PUSH2 0x20A9 JUMP JUMPDEST SWAP1 POP PUSH2 0x966 JUMP JUMPDEST PUSH10 0x3635C9ADC5DEA000000 DUP3 PUSH1 0x60 ADD MLOAD GT ISZERO PUSH2 0x856 JUMPI PUSH1 0x6 DUP2 PUSH2 0x84F SWAP2 SWAP1 PUSH2 0x20A9 JUMP JUMPDEST SWAP1 POP PUSH2 0x965 JUMP JUMPDEST PUSH10 0x28A857425466F800000 DUP3 PUSH1 0x60 ADD MLOAD GT ISZERO PUSH2 0x880 JUMPI PUSH1 0x8 DUP2 PUSH2 0x879 SWAP2 SWAP1 PUSH2 0x20A9 JUMP JUMPDEST SWAP1 POP PUSH2 0x964 JUMP JUMPDEST PUSH10 0x1E7E4171BF4D3A00000 DUP3 PUSH1 0x60 ADD MLOAD GT ISZERO PUSH2 0x8AA JUMPI PUSH1 0xA DUP2 PUSH2 0x8A3 SWAP2 SWAP1 PUSH2 0x20A9 JUMP JUMPDEST SWAP1 POP PUSH2 0x963 JUMP JUMPDEST PUSH10 0x14542BA12A337C00000 DUP3 PUSH1 0x60 ADD MLOAD GT ISZERO PUSH2 0x8D4 JUMPI PUSH1 0xC DUP2 PUSH2 0x8CD SWAP2 SWAP1 PUSH2 0x20A9 JUMP JUMPDEST SWAP1 POP PUSH2 0x962 JUMP JUMPDEST PUSH9 0xBDBC41E0348B300000 DUP3 PUSH1 0x60 ADD MLOAD GT ISZERO PUSH2 0x8FD JUMPI PUSH1 0xE DUP2 PUSH2 0x8F6 SWAP2 SWAP1 PUSH2 0x20A9 JUMP JUMPDEST SWAP1 POP PUSH2 0x961 JUMP JUMPDEST PUSH9 0x6C6B935B8BBD400000 DUP3 PUSH1 0x60 ADD MLOAD GT ISZERO PUSH2 0x926 JUMPI PUSH1 0x10 DUP2 PUSH2 0x91F SWAP2 SWAP1 PUSH2 0x20A9 JUMP JUMPDEST SWAP1 POP PUSH2 0x960 JUMP JUMPDEST PUSH9 0x1B1AE4D6E2EF500000 DUP3 PUSH1 0x60 ADD MLOAD GT ISZERO PUSH2 0x94F JUMPI PUSH1 0x12 DUP2 PUSH2 0x948 SWAP2 SWAP1 PUSH2 0x20A9 JUMP JUMPDEST SWAP1 POP PUSH2 0x95F JUMP JUMPDEST PUSH1 0x14 DUP2 PUSH2 0x95C SWAP2 SWAP1 PUSH2 0x20A9 JUMP JUMPDEST SWAP1 POP JUMPDEST JUMPDEST JUMPDEST JUMPDEST JUMPDEST JUMPDEST JUMPDEST JUMPDEST JUMPDEST JUMPDEST JUMPDEST JUMPDEST PUSH1 0x2 DUP1 PUSH1 0x0 SWAP1 SLOAD SWAP1 PUSH2 0x100 EXP SWAP1 DIV PUSH20 0xFFFFFFFFFFFFFFFFFFFFFFFFFFFFFFFFFFFFFFFF AND PUSH20 0xFFFFFFFFFFFFFFFFFFFFFFFFFFFFFFFFFFFFFFFF AND PUSH4 0x9445AE04 DUP7 PUSH1 0x40 MLOAD DUP3 PUSH4 0xFFFFFFFF AND PUSH1 0xE0 SHL DUP2 MSTORE PUSH1 0x4 ADD PUSH2 0x9C6 SWAP2 SWAP1 PUSH2 0x1CC2 JUMP JUMPDEST PUSH1 0x20 PUSH1 0x40 MLOAD DUP1 DUP4 SUB DUP2 DUP7 GAS STATICCALL ISZERO DUP1 ISZERO PUSH2 0x9E3 JUMPI RETURNDATASIZE PUSH1 0x0 DUP1 RETURNDATACOPY RETURNDATASIZE PUSH1 0x0 REVERT JUMPDEST POP POP POP POP PUSH1 0x40 MLOAD RETURNDATASIZE PUSH1 0x1F NOT PUSH1 0x1F DUP3 ADD AND DUP3 ADD DUP1 PUSH1 0x40 MSTORE POP DUP2 ADD SWAP1 PUSH2 0xA07 SWAP2 SWAP1 PUSH2 0x204D JUMP JUMPDEST PUSH2 0xFFFF AND GT ISZERO PUSH2 0xA25 JUMPI PUSH1 0xA DUP2 PUSH2 0xA1E SWAP2 SWAP1 PUSH2 0x20A9 JUMP JUMPDEST SWAP1 POP PUSH2 0xC6A JUMP JUMPDEST PUSH1 0x2 DUP1 PUSH1 0x0 SWAP1 SLOAD SWAP1 PUSH2 0x100 EXP SWAP1 DIV PUSH20 0xFFFFFFFFFFFFFFFFFFFFFFFFFFFFFFFFFFFFFFFF AND PUSH20 0xFFFFFFFFFFFFFFFFFFFFFFFFFFFFFFFFFFFFFFFF AND PUSH4 0x9445AE04 DUP7 PUSH1 0x40 MLOAD DUP3 PUSH4 0xFFFFFFFF AND PUSH1 0xE0 SHL DUP2 MSTORE PUSH1 0x4 ADD PUSH2 0xA81 SWAP2 SWAP1 PUSH2 0x1CC2 JUMP JUMPDEST PUSH1 0x20 PUSH1 0x40 MLOAD DUP1 DUP4 SUB DUP2 DUP7 GAS STATICCALL ISZERO DUP1 ISZERO PUSH2 0xA9E JUMPI RETURNDATASIZE PUSH1 0x0 DUP1 RETURNDATACOPY RETURNDATASIZE PUSH1 0x0 REVERT JUMPDEST POP POP POP POP PUSH1 0x40 MLOAD RETURNDATASIZE PUSH1 0x1F NOT PUSH1 0x1F DUP3 ADD AND DUP3 ADD DUP1 PUSH1 0x40 MSTORE POP DUP2 ADD SWAP1 PUSH2 0xAC2 SWAP2 SWAP1 PUSH2 0x204D JUMP JUMPDEST PUSH2 0xFFFF AND SUB PUSH2 0xADF JUMPI PUSH1 0x6 DUP2 PUSH2 0xAD8 SWAP2 SWAP1 PUSH2 0x20A9 JUMP JUMPDEST SWAP1 POP PUSH2 0xC69 JUMP JUMPDEST PUSH1 0x1 PUSH1 0x2 PUSH1 0x0 SWAP1 SLOAD SWAP1 PUSH2 0x100 EXP SWAP1 DIV PUSH20 0xFFFFFFFFFFFFFFFFFFFFFFFFFFFFFFFFFFFFFFFF AND PUSH20 0xFFFFFFFFFFFFFFFFFFFFFFFFFFFFFFFFFFFFFFFF AND PUSH4 0x9445AE04 DUP7 PUSH1 0x40 MLOAD DUP3 PUSH4 0xFFFFFFFF AND PUSH1 0xE0 SHL DUP2 MSTORE PUSH1 0x4 ADD PUSH2 0xB3C SWAP2 SWAP1 PUSH2 0x1CC2 JUMP JUMPDEST PUSH1 0x20 PUSH1 0x40 MLOAD DUP1 DUP4 SUB DUP2 DUP7 GAS STATICCALL ISZERO DUP1 ISZERO PUSH2 0xB59 JUMPI RETURNDATASIZE PUSH1 0x0 DUP1 RETURNDATACOPY RETURNDATASIZE PUSH1 0x0 REVERT JUMPDEST POP POP POP POP PUSH1 0x40 MLOAD RETURNDATASIZE PUSH1 0x1F NOT PUSH1 0x1F DUP3 ADD AND DUP3 ADD DUP1 PUSH1 0x40 MSTORE POP DUP2 ADD SWAP1 PUSH2 0xB7D SWAP2 SWAP1 PUSH2 0x204D JUMP JUMPDEST PUSH2 0xFFFF AND SUB PUSH2 0xB9A JUMPI PUSH1 0x3 DUP2 PUSH2 0xB93 SWAP2 SWAP1 PUSH2 0x20A9 JUMP JUMPDEST SWAP1 POP PUSH2 0xC68 JUMP JUMPDEST PUSH1 0x1A DUP3 PUSH1 0x0 ADD MLOAD PUSH2 0xFFFF AND GT ISZERO PUSH2 0xBBF JUMPI PUSH1 0x0 DUP2 PUSH2 0xBB8 SWAP2 SWAP1 PUSH2 0x20A9 JUMP JUMPDEST SWAP1 POP PUSH2 0xC67 JUMP JUMPDEST PUSH1 0x12 DUP3 PUSH1 0x0 ADD MLOAD PUSH2 0xFFFF AND GT ISZERO PUSH2 0xBE4 JUMPI PUSH1 0x2 DUP2 PUSH2 0xBDD SWAP2 SWAP1 PUSH2 0x20A9 JUMP JUMPDEST SWAP1 POP PUSH2 0xC66 JUMP JUMPDEST PUSH1 0xA DUP3 PUSH1 0x0 ADD MLOAD PUSH2 0xFFFF AND GT ISZERO PUSH2 0xC09 JUMPI PUSH1 0x4 DUP2 PUSH2 0xC02 SWAP2 SWAP1 PUSH2 0x20A9 JUMP JUMPDEST SWAP1 POP PUSH2 0xC65 JUMP JUMPDEST PUSH1 0x5 DUP3 PUSH1 0x0 ADD MLOAD PUSH2 0xFFFF AND GT ISZERO PUSH2 0xC2E JUMPI PUSH1 0x6 DUP2 PUSH2 0xC27 SWAP2 SWAP1 PUSH2 0x20A9 JUMP JUMPDEST SWAP1 POP PUSH2 0xC64 JUMP JUMPDEST PUSH1 0x2 DUP3 PUSH1 0x0 ADD MLOAD PUSH2 0xFFFF AND GT ISZERO PUSH2 0xC53 JUMPI PUSH1 0x8 DUP2 PUSH2 0xC4C SWAP2 SWAP1 PUSH2 0x20A9 JUMP JUMPDEST SWAP1 POP PUSH2 0xC63 JUMP JUMPDEST PUSH1 0xA DUP2 PUSH2 0xC60 SWAP2 SWAP1 PUSH2 0x20A9 JUMP JUMPDEST SWAP1 POP JUMPDEST JUMPDEST JUMPDEST JUMPDEST JUMPDEST JUMPDEST JUMPDEST JUMPDEST PUSH1 0x2 DUP1 PUSH1 0x0 SWAP1 SLOAD SWAP1 PUSH2 0x100 EXP SWAP1 DIV PUSH20 0xFFFFFFFFFFFFFFFFFFFFFFFFFFFFFFFFFFFFFFFF AND PUSH20 0xFFFFFFFFFFFFFFFFFFFFFFFFFFFFFFFFFFFFFFFF AND PUSH4 0x9445AE04 DUP7 PUSH1 0x40 MLOAD DUP3 PUSH4 0xFFFFFFFF AND PUSH1 0xE0 SHL DUP2 MSTORE PUSH1 0x4 ADD PUSH2 0xCC6 SWAP2 SWAP1 PUSH2 0x1CC2 JUMP JUMPDEST PUSH1 0x20 PUSH1 0x40 MLOAD DUP1 DUP4 SUB DUP2 DUP7 GAS STATICCALL ISZERO DUP1 ISZERO PUSH2 0xCE3 JUMPI RETURNDATASIZE PUSH1 0x0 DUP1 RETURNDATACOPY RETURNDATASIZE PUSH1 0x0 REVERT JUMPDEST POP POP POP POP PUSH1 0x40 MLOAD RETURNDATASIZE PUSH1 0x1F NOT PUSH1 0x1F DUP3 ADD AND DUP3 ADD DUP1 PUSH1 0x40 MSTORE POP DUP2 ADD SWAP1 PUSH2 0xD07 SWAP2 SWAP1 PUSH2 0x204D JUMP JUMPDEST PUSH2 0xFFFF AND GT ISZERO PUSH2 0xD25 JUMPI PUSH1 0xA DUP2 PUSH2 0xD1E SWAP2 SWAP1 PUSH2 0x20A9 JUMP JUMPDEST SWAP1 POP PUSH2 0x102C JUMP JUMPDEST PUSH1 0x2 DUP1 PUSH1 0x0 SWAP1 SLOAD SWAP1 PUSH2 0x100 EXP SWAP1 DIV PUSH20 0xFFFFFFFFFFFFFFFFFFFFFFFFFFFFFFFFFFFFFFFF AND PUSH20 0xFFFFFFFFFFFFFFFFFFFFFFFFFFFFFFFFFFFFFFFF AND PUSH4 0x9445AE04 DUP7 PUSH1 0x40 MLOAD DUP3 PUSH4 0xFFFFFFFF AND PUSH1 0xE0 SHL DUP2 MSTORE PUSH1 0x4 ADD PUSH2 0xD81 SWAP2 SWAP1 PUSH2 0x1CC2 JUMP JUMPDEST PUSH1 0x20 PUSH1 0x40 MLOAD DUP1 DUP4 SUB DUP2 DUP7 GAS STATICCALL ISZERO DUP1 ISZERO PUSH2 0xD9E JUMPI RETURNDATASIZE PUSH1 0x0 DUP1 RETURNDATACOPY RETURNDATASIZE PUSH1 0x0 REVERT JUMPDEST POP POP POP POP PUSH1 0x40 MLOAD RETURNDATASIZE PUSH1 0x1F NOT PUSH1 0x1F DUP3 ADD AND DUP3 ADD DUP1 PUSH1 0x40 MSTORE POP DUP2 ADD SWAP1 PUSH2 0xDC2 SWAP2 SWAP1 PUSH2 0x204D JUMP JUMPDEST PUSH2 0xFFFF AND SUB PUSH2 0xDDF JUMPI PUSH1 0x8 DUP2 PUSH2 0xDD8 SWAP2 SWAP1 PUSH2 0x20A9 JUMP JUMPDEST SWAP1 POP PUSH2 0x102B JUMP JUMPDEST PUSH1 0x1 PUSH1 0x2 PUSH1 0x0 SWAP1 SLOAD SWAP1 PUSH2 0x100 EXP SWAP1 DIV PUSH20 0xFFFFFFFFFFFFFFFFFFFFFFFFFFFFFFFFFFFFFFFF AND PUSH20 0xFFFFFFFFFFFFFFFFFFFFFFFFFFFFFFFFFFFFFFFF AND PUSH4 0x9445AE04 DUP7 PUSH1 0x40 MLOAD DUP3 PUSH4 0xFFFFFFFF AND PUSH1 0xE0 SHL DUP2 MSTORE PUSH1 0x4 ADD PUSH2 0xE3C SWAP2 SWAP1 PUSH2 0x1CC2 JUMP JUMPDEST PUSH1 0x20 PUSH1 0x40 MLOAD DUP1 DUP4 SUB DUP2 DUP7 GAS STATICCALL ISZERO DUP1 ISZERO PUSH2 0xE59 JUMPI RETURNDATASIZE PUSH1 0x0 DUP1 RETURNDATACOPY RETURNDATASIZE PUSH1 0x0 REVERT JUMPDEST POP POP POP POP PUSH1 0x40 MLOAD RETURNDATASIZE PUSH1 0x1F NOT PUSH1 0x1F DUP3 ADD AND DUP3 ADD DUP1 PUSH1 0x40 MSTORE POP DUP2 ADD SWAP1 PUSH2 0xE7D SWAP2 SWAP1 PUSH2 0x204D JUMP JUMPDEST PUSH2 0xFFFF AND SUB PUSH2 0xE9A JUMPI PUSH1 0x6 DUP2 PUSH2 0xE93 SWAP2 SWAP1 PUSH2 0x20A9 JUMP JUMPDEST SWAP1 POP PUSH2 0x102A JUMP JUMPDEST PUSH10 0x7695A92C20D6FE00000 DUP3 PUSH1 0x40 ADD MLOAD GT ISZERO PUSH2 0xEC4 JUMPI PUSH1 0x0 DUP2 PUSH2 0xEBD SWAP2 SWAP1 PUSH2 0x20A9 JUMP JUMPDEST SWAP1 POP PUSH2 0x1029 JUMP JUMPDEST PUSH10 0x54B40B1F852BDA00000 DUP3 PUSH1 0x40 ADD MLOAD GT ISZERO PUSH2 0xEEE JUMPI PUSH1 0x1 DUP2 PUSH2 0xEE7 SWAP2 SWAP1 PUSH2 0x20A9 JUMP JUMPDEST SWAP1 POP PUSH2 0x1028 JUMP JUMPDEST PUSH10 0x3635C9ADC5DEA000000 DUP3 PUSH1 0x40 ADD MLOAD GT ISZERO PUSH2 0xF18 JUMPI PUSH1 0x2 DUP2 PUSH2 0xF11 SWAP2 SWAP1 PUSH2 0x20A9 JUMP JUMPDEST SWAP1 POP PUSH2 0x1027 JUMP JUMPDEST PUSH10 0x28A857425466F800000 DUP3 PUSH1 0x40 ADD MLOAD GT ISZERO PUSH2 0xF42 JUMPI PUSH1 0x3 DUP2 PUSH2 0xF3B SWAP2 SWAP1 PUSH2 0x20A9 JUMP JUMPDEST SWAP1 POP PUSH2 0x1026 JUMP JUMPDEST PUSH10 0x1E7E4171BF4D3A00000 DUP3 PUSH1 0x40 ADD MLOAD GT ISZERO PUSH2 0xF6C JUMPI PUSH1 0x4 DUP2 PUSH2 0xF65 SWAP2 SWAP1 PUSH2 0x20A9 JUMP JUMPDEST SWAP1 POP PUSH2 0x1025 JUMP JUMPDEST PUSH10 0x14542BA12A337C00000 DUP3 PUSH1 0x40 ADD MLOAD GT ISZERO PUSH2 0xF96 JUMPI PUSH1 0x6 DUP2 PUSH2 0xF8F SWAP2 SWAP1 PUSH2 0x20A9 JUMP JUMPDEST SWAP1 POP PUSH2 0x1024 JUMP JUMPDEST PUSH9 0xBDBC41E0348B300000 DUP3 PUSH1 0x40 ADD MLOAD GT ISZERO PUSH2 0xFBF JUMPI PUSH1 0x7 DUP2 PUSH2 0xFB8 SWAP2 SWAP1 PUSH2 0x20A9 JUMP JUMPDEST SWAP1 POP PUSH2 0x1023 JUMP JUMPDEST PUSH9 0x6C6B935B8BBD400000 DUP3 PUSH1 0x40 ADD MLOAD GT ISZERO PUSH2 0xFE8 JUMPI PUSH1 0x8 DUP2 PUSH2 0xFE1 SWAP2 SWAP1 PUSH2 0x20A9 JUMP JUMPDEST SWAP1 POP PUSH2 0x1022 JUMP JUMPDEST PUSH9 0x1B1AE4D6E2EF500000 DUP3 PUSH1 0x40 ADD MLOAD GT ISZERO PUSH2 0x1011 JUMPI PUSH1 0x9 DUP2 PUSH2 0x100A SWAP2 SWAP1 PUSH2 0x20A9 JUMP JUMPDEST SWAP1 POP PUSH2 0x1021 JUMP JUMPDEST PUSH1 0xA DUP2 PUSH2 0x101E SWAP2 SWAP1 PUSH2 0x20A9 JUMP JUMPDEST SWAP1 POP JUMPDEST JUMPDEST JUMPDEST JUMPDEST JUMPDEST JUMPDEST JUMPDEST JUMPDEST JUMPDEST JUMPDEST JUMPDEST JUMPDEST PUSH1 0x2 DUP1 PUSH1 0x0 SWAP1 SLOAD SWAP1 PUSH2 0x100 EXP SWAP1 DIV PUSH20 0xFFFFFFFFFFFFFFFFFFFFFFFFFFFFFFFFFFFFFFFF AND PUSH20 0xFFFFFFFFFFFFFFFFFFFFFFFFFFFFFFFFFFFFFFFF AND PUSH4 0x9445AE04 DUP7 PUSH1 0x40 MLOAD DUP3 PUSH4 0xFFFFFFFF AND PUSH1 0xE0 SHL DUP2 MSTORE PUSH1 0x4 ADD PUSH2 0x1088 SWAP2 SWAP1 PUSH2 0x1CC2 JUMP JUMPDEST PUSH1 0x20 PUSH1 0x40 MLOAD DUP1 DUP4 SUB DUP2 DUP7 GAS STATICCALL ISZERO DUP1 ISZERO PUSH2 0x10A5 JUMPI RETURNDATASIZE PUSH1 0x0 DUP1 RETURNDATACOPY RETURNDATASIZE PUSH1 0x0 REVERT JUMPDEST POP POP POP POP PUSH1 0x40 MLOAD RETURNDATASIZE PUSH1 0x1F NOT PUSH1 0x1F DUP3 ADD AND DUP3 ADD DUP1 PUSH1 0x40 MSTORE POP DUP2 ADD SWAP1 PUSH2 0x10C9 SWAP2 SWAP1 PUSH2 0x204D JUMP JUMPDEST PUSH2 0xFFFF AND GT ISZERO PUSH2 0x10E7 JUMPI PUSH1 0xF DUP2 PUSH2 0x10E0 SWAP2 SWAP1 PUSH2 0x20A9 JUMP JUMPDEST SWAP1 POP PUSH2 0x13EE JUMP JUMPDEST PUSH1 0x2 DUP1 PUSH1 0x0 SWAP1 SLOAD SWAP1 PUSH2 0x100 EXP SWAP1 DIV PUSH20 0xFFFFFFFFFFFFFFFFFFFFFFFFFFFFFFFFFFFFFFFF AND PUSH20 0xFFFFFFFFFFFFFFFFFFFFFFFFFFFFFFFFFFFFFFFF AND PUSH4 0x9445AE04 DUP7 PUSH1 0x40 MLOAD DUP3 PUSH4 0xFFFFFFFF AND PUSH1 0xE0 SHL DUP2 MSTORE PUSH1 0x4 ADD PUSH2 0x1143 SWAP2 SWAP1 PUSH2 0x1CC2 JUMP JUMPDEST PUSH1 0x20 PUSH1 0x40 MLOAD DUP1 DUP4 SUB DUP2 DUP7 GAS STATICCALL ISZERO DUP1 ISZERO PUSH2 0x1160 JUMPI RETURNDATASIZE PUSH1 0x0 DUP1 RETURNDATACOPY RETURNDATASIZE PUSH1 0x0 REVERT JUMPDEST POP POP POP POP PUSH1 0x40 MLOAD RETURNDATASIZE PUSH1 0x1F NOT PUSH1 0x1F DUP3 ADD AND DUP3 ADD DUP1 PUSH1 0x40 MSTORE POP DUP2 ADD SWAP1 PUSH2 0x1184 SWAP2 SWAP1 PUSH2 0x204D JUMP JUMPDEST PUSH2 0xFFFF AND SUB PUSH2 0x11A1 JUMPI PUSH1 0xA DUP2 PUSH2 0x119A SWAP2 SWAP1 PUSH2 0x20A9 JUMP JUMPDEST SWAP1 POP PUSH2 0x13ED JUMP JUMPDEST PUSH1 0x1 PUSH1 0x2 PUSH1 0x0 SWAP1 SLOAD SWAP1 PUSH2 0x100 EXP SWAP1 DIV PUSH20 0xFFFFFFFFFFFFFFFFFFFFFFFFFFFFFFFFFFFFFFFF AND PUSH20 0xFFFFFFFFFFFFFFFFFFFFFFFFFFFFFFFFFFFFFFFF AND PUSH4 0x9445AE04 DUP7 PUSH1 0x40 MLOAD DUP3 PUSH4 0xFFFFFFFF AND PUSH1 0xE0 SHL DUP2 MSTORE PUSH1 0x4 ADD PUSH2 0x11FE SWAP2 SWAP1 PUSH2 0x1CC2 JUMP JUMPDEST PUSH1 0x20 PUSH1 0x40 MLOAD DUP1 DUP4 SUB DUP2 DUP7 GAS STATICCALL ISZERO DUP1 ISZERO PUSH2 0x121B JUMPI RETURNDATASIZE PUSH1 0x0 DUP1 RETURNDATACOPY RETURNDATASIZE PUSH1 0x0 REVERT JUMPDEST POP POP POP POP PUSH1 0x40 MLOAD RETURNDATASIZE PUSH1 0x1F NOT PUSH1 0x1F DUP3 ADD AND DUP3 ADD DUP1 PUSH1 0x40 MSTORE POP DUP2 ADD SWAP1 PUSH2 0x123F SWAP2 SWAP1 PUSH2 0x204D JUMP JUMPDEST PUSH2 0xFFFF AND SUB PUSH2 0x125C JUMPI PUSH1 0x5 DUP2 PUSH2 0x1255 SWAP2 SWAP1 PUSH2 0x20A9 JUMP JUMPDEST SWAP1 POP PUSH2 0x13EC JUMP JUMPDEST PUSH10 0x7695A92C20D6FE00000 DUP3 PUSH1 0xA0 ADD MLOAD GT ISZERO PUSH2 0x1286 JUMPI PUSH1 0x0 DUP2 PUSH2 0x127F SWAP2 SWAP1 PUSH2 0x20A9 JUMP JUMPDEST SWAP1 POP PUSH2 0x13EB JUMP JUMPDEST PUSH10 0x54B40B1F852BDA00000 DUP3 PUSH1 0xA0 ADD MLOAD GT ISZERO PUSH2 0x12B0 JUMPI PUSH1 0x1 DUP2 PUSH2 0x12A9 SWAP2 SWAP1 PUSH2 0x20A9 JUMP JUMPDEST SWAP1 POP PUSH2 0x13EA JUMP JUMPDEST PUSH10 0x3635C9ADC5DEA000000 DUP3 PUSH1 0xA0 ADD MLOAD GT ISZERO PUSH2 0x12DA JUMPI PUSH1 0x2 DUP2 PUSH2 0x12D3 SWAP2 SWAP1 PUSH2 0x20A9 JUMP JUMPDEST SWAP1 POP PUSH2 0x13E9 JUMP JUMPDEST PUSH10 0x28A857425466F800000 DUP3 PUSH1 0xA0 ADD MLOAD GT ISZERO PUSH2 0x1304 JUMPI PUSH1 0x3 DUP2 PUSH2 0x12FD SWAP2 SWAP1 PUSH2 0x20A9 JUMP JUMPDEST SWAP1 POP PUSH2 0x13E8 JUMP JUMPDEST PUSH10 0x1E7E4171BF4D3A00000 DUP3 PUSH1 0xA0 ADD MLOAD GT ISZERO PUSH2 0x132E JUMPI PUSH1 0x5 DUP2 PUSH2 0x1327 SWAP2 SWAP1 PUSH2 0x20A9 JUMP JUMPDEST SWAP1 POP PUSH2 0x13E7 JUMP JUMPDEST PUSH10 0x14542BA12A337C00000 DUP3 PUSH1 0xA0 ADD MLOAD GT ISZERO PUSH2 0x1358 JUMPI PUSH1 0x7 DUP2 PUSH2 0x1351 SWAP2 SWAP1 PUSH2 0x20A9 JUMP JUMPDEST SWAP1 POP PUSH2 0x13E6 JUMP JUMPDEST PUSH9 0xBDBC41E0348B300000 DUP3 PUSH1 0xA0 ADD MLOAD GT ISZERO PUSH2 0x1381 JUMPI PUSH1 0x9 DUP2 PUSH2 0x137A SWAP2 SWAP1 PUSH2 0x20A9 JUMP JUMPDEST SWAP1 POP PUSH2 0x13E5 JUMP JUMPDEST PUSH9 0x6C6B935B8BBD400000 DUP3 PUSH1 0xA0 ADD MLOAD GT ISZERO PUSH2 0x13AA JUMPI PUSH1 0xB DUP2 PUSH2 0x13A3 SWAP2 SWAP1 PUSH2 0x20A9 JUMP JUMPDEST SWAP1 POP PUSH2 0x13E4 JUMP JUMPDEST PUSH9 0x1B1AE4D6E2EF500000 DUP3 PUSH1 0xA0 ADD MLOAD GT ISZERO PUSH2 0x13D3 JUMPI PUSH1 0xD DUP2 PUSH2 0x13CC SWAP2 SWAP1 PUSH2 0x20A9 JUMP JUMPDEST SWAP1 POP PUSH2 0x13E3 JUMP JUMPDEST PUSH1 0xF DUP2 PUSH2 0x13E0 SWAP2 SWAP1 PUSH2 0x20A9 JUMP JUMPDEST SWAP1 POP JUMPDEST JUMPDEST JUMPDEST JUMPDEST JUMPDEST JUMPDEST JUMPDEST JUMPDEST JUMPDEST JUMPDEST JUMPDEST JUMPDEST PUSH1 0x2 DUP1 PUSH1 0x0 SWAP1 SLOAD SWAP1 PUSH2 0x100 EXP SWAP1 DIV PUSH20 0xFFFFFFFFFFFFFFFFFFFFFFFFFFFFFFFFFFFFFFFF AND PUSH20 0xFFFFFFFFFFFFFFFFFFFFFFFFFFFFFFFFFFFFFFFF AND PUSH4 0x9445AE04 DUP7 PUSH1 0x40 MLOAD DUP3 PUSH4 0xFFFFFFFF AND PUSH1 0xE0 SHL DUP2 MSTORE PUSH1 0x4 ADD PUSH2 0x144A SWAP2 SWAP1 PUSH2 0x1CC2 JUMP JUMPDEST PUSH1 0x20 PUSH1 0x40 MLOAD DUP1 DUP4 SUB DUP2 DUP7 GAS STATICCALL ISZERO DUP1 ISZERO PUSH2 0x1467 JUMPI RETURNDATASIZE PUSH1 0x0 DUP1 RETURNDATACOPY RETURNDATASIZE PUSH1 0x0 REVERT JUMPDEST POP POP POP POP PUSH1 0x40 MLOAD RETURNDATASIZE PUSH1 0x1F NOT PUSH1 0x1F DUP3 ADD AND DUP3 ADD DUP1 PUSH1 0x40 MSTORE POP DUP2 ADD SWAP1 PUSH2 0x148B SWAP2 SWAP1 PUSH2 0x204D JUMP JUMPDEST PUSH2 0xFFFF AND GT ISZERO PUSH2 0x14A9 JUMPI PUSH1 0x14 DUP2 PUSH2 0x14A2 SWAP2 SWAP1 PUSH2 0x20A9 JUMP JUMPDEST SWAP1 POP PUSH2 0x17D1 JUMP JUMPDEST PUSH1 0x2 DUP1 PUSH1 0x0 SWAP1 SLOAD SWAP1 PUSH2 0x100 EXP SWAP1 DIV PUSH20 0xFFFFFFFFFFFFFFFFFFFFFFFFFFFFFFFFFFFFFFFF AND PUSH20 0xFFFFFFFFFFFFFFFFFFFFFFFFFFFFFFFFFFFFFFFF AND PUSH4 0x9445AE04 DUP7 PUSH1 0x40 MLOAD DUP3 PUSH4 0xFFFFFFFF AND PUSH1 0xE0 SHL DUP2 MSTORE PUSH1 0x4 ADD PUSH2 0x1505 SWAP2 SWAP1 PUSH2 0x1CC2 JUMP JUMPDEST PUSH1 0x20 PUSH1 0x40 MLOAD DUP1 DUP4 SUB DUP2 DUP7 GAS STATICCALL ISZERO DUP1 ISZERO PUSH2 0x1522 JUMPI RETURNDATASIZE PUSH1 0x0 DUP1 RETURNDATACOPY RETURNDATASIZE PUSH1 0x0 REVERT JUMPDEST POP POP POP POP PUSH1 0x40 MLOAD RETURNDATASIZE PUSH1 0x1F NOT PUSH1 0x1F DUP3 ADD AND DUP3 ADD DUP1 PUSH1 0x40 MSTORE POP DUP2 ADD SWAP1 PUSH2 0x1546 SWAP2 SWAP1 PUSH2 0x204D JUMP JUMPDEST PUSH2 0xFFFF AND SUB PUSH2 0x1563 JUMPI PUSH1 0xF DUP2 PUSH2 0x155C SWAP2 SWAP1 PUSH2 0x20A9 JUMP JUMPDEST SWAP1 POP PUSH2 0x17D0 JUMP JUMPDEST PUSH1 0x1 PUSH1 0x2 PUSH1 0x0 SWAP1 SLOAD SWAP1 PUSH2 0x100 EXP SWAP1 DIV PUSH20 0xFFFFFFFFFFFFFFFFFFFFFFFFFFFFFFFFFFFFFFFF AND PUSH20 0xFFFFFFFFFFFFFFFFFFFFFFFFFFFFFFFFFFFFFFFF AND PUSH4 0x9445AE04 DUP7 PUSH1 0x40 MLOAD DUP3 PUSH4 0xFFFFFFFF AND PUSH1 0xE0 SHL DUP2 MSTORE PUSH1 0x4 ADD PUSH2 0x15C0 SWAP2 SWAP1 PUSH2 0x1CC2 JUMP JUMPDEST PUSH1 0x20 PUSH1 0x40 MLOAD DUP1 DUP4 SUB DUP2 DUP7 GAS STATICCALL ISZERO DUP1 ISZERO PUSH2 0x15DD JUMPI RETURNDATASIZE PUSH1 0x0 DUP1 RETURNDATACOPY RETURNDATASIZE PUSH1 0x0 REVERT JUMPDEST POP POP POP POP PUSH1 0x40 MLOAD RETURNDATASIZE PUSH1 0x1F NOT PUSH1 0x1F DUP3 ADD AND DUP3 ADD DUP1 PUSH1 0x40 MSTORE POP DUP2 ADD SWAP1 PUSH2 0x1601 SWAP2 SWAP1 PUSH2 0x204D JUMP JUMPDEST PUSH2 0xFFFF AND SUB PUSH2 0x161E JUMPI PUSH1 0xA DUP2 PUSH2 0x1617 SWAP2 SWAP1 PUSH2 0x20A9 JUMP JUMPDEST SWAP1 POP PUSH2 0x17CF JUMP JUMPDEST PUSH9 0x821AB0D4414980000 DUP3 PUSH1 0xC0 ADD MLOAD GT ISZERO PUSH2 0x1647 JUMPI PUSH1 0x0 DUP2 PUSH2 0x1640 SWAP2 SWAP1 PUSH2 0x20A9 JUMP JUMPDEST SWAP1 POP PUSH2 0x17CE JUMP JUMPDEST PUSH9 0x68155A43676E00000 DUP3 PUSH1 0xC0 ADD MLOAD GT ISZERO PUSH2 0x1670 JUMPI PUSH1 0x2 DUP2 PUSH2 0x1669 SWAP2 SWAP1 PUSH2 0x20A9 JUMP JUMPDEST SWAP1 POP PUSH2 0x17CD JUMP JUMPDEST PUSH9 0x56BC75E2D63100000 DUP3 PUSH1 0xC0 ADD MLOAD GT ISZERO PUSH2 0x1699 JUMPI PUSH1 0x4 DUP2 PUSH2 0x1692 SWAP2 SWAP1 PUSH2 0x20A9 JUMP JUMPDEST SWAP1 POP PUSH2 0x17CC JUMP JUMPDEST PUSH9 0x4563918244F400000 DUP3 PUSH1 0xC0 ADD MLOAD GT ISZERO PUSH2 0x16C2 JUMPI PUSH1 0x6 DUP2 PUSH2 0x16BB SWAP2 SWAP1 PUSH2 0x20A9 JUMP JUMPDEST SWAP1 POP PUSH2 0x17CB JUMP JUMPDEST PUSH9 0x340AAD21B3B700000 DUP3 PUSH1 0xC0 ADD MLOAD GT ISZERO PUSH2 0x16EB JUMPI PUSH1 0x8 DUP2 PUSH2 0x16E4 SWAP2 SWAP1 PUSH2 0x20A9 JUMP JUMPDEST SWAP1 POP PUSH2 0x17CA JUMP JUMPDEST PUSH9 0x270801D946C940000 DUP3 PUSH1 0xC0 ADD MLOAD GT ISZERO PUSH2 0x1714 JUMPI PUSH1 0xA DUP2 PUSH2 0x170D SWAP2 SWAP1 PUSH2 0x20A9 JUMP JUMPDEST SWAP1 POP PUSH2 0x17C9 JUMP JUMPDEST PUSH9 0x15AF1D78B58C40000 DUP3 PUSH1 0xC0 ADD MLOAD GT ISZERO PUSH2 0x173D JUMPI PUSH1 0xC DUP2 PUSH2 0x1736 SWAP2 SWAP1 PUSH2 0x20A9 JUMP JUMPDEST SWAP1 POP PUSH2 0x17C8 JUMP JUMPDEST PUSH8 0xD02AB486CEDC0000 DUP3 PUSH1 0xC0 ADD MLOAD GT ISZERO PUSH2 0x1765 JUMPI PUSH1 0xE DUP2 PUSH2 0x175E SWAP2 SWAP1 PUSH2 0x20A9 JUMP JUMPDEST SWAP1 POP PUSH2 0x17C7 JUMP JUMPDEST PUSH8 0x8AC7230489E80000 DUP3 PUSH1 0xC0 ADD MLOAD GT ISZERO PUSH2 0x178D JUMPI PUSH1 0x10 DUP2 PUSH2 0x1786 SWAP2 SWAP1 PUSH2 0x20A9 JUMP JUMPDEST SWAP1 POP PUSH2 0x17C6 JUMP JUMPDEST PUSH8 0x4563918244F40000 DUP3 PUSH1 0xC0 ADD MLOAD GT ISZERO PUSH2 0x17B5 JUMPI PUSH1 0x12 DUP2 PUSH2 0x17AE SWAP2 SWAP1 PUSH2 0x20A9 JUMP JUMPDEST SWAP1 POP PUSH2 0x17C5 JUMP JUMPDEST PUSH1 0x14 DUP2 PUSH2 0x17C2 SWAP2 SWAP1 PUSH2 0x20A9 JUMP JUMPDEST SWAP1 POP JUMPDEST JUMPDEST JUMPDEST JUMPDEST JUMPDEST JUMPDEST JUMPDEST JUMPDEST JUMPDEST JUMPDEST JUMPDEST JUMPDEST JUMPDEST PUSH1 0x0 DUP3 PUSH1 0xE0 ADD MLOAD PUSH2 0xFFFF AND SUB PUSH2 0x17F5 JUMPI PUSH1 0x0 DUP2 PUSH2 0x17EE SWAP2 SWAP1 PUSH2 0x20A9 JUMP JUMPDEST SWAP1 POP PUSH2 0x184F JUMP JUMPDEST PUSH1 0x1 DUP3 PUSH1 0xE0 ADD MLOAD PUSH2 0xFFFF AND SUB PUSH2 0x1819 JUMPI PUSH1 0xF DUP2 PUSH2 0x1812 SWAP2 SWAP1 PUSH2 0x20A9 JUMP JUMPDEST SWAP1 POP PUSH2 0x184E JUMP JUMPDEST PUSH1 0x2 DUP3 PUSH1 0xE0 ADD MLOAD PUSH2 0xFFFF AND SUB PUSH2 0x183D JUMPI PUSH1 0x19 DUP2 PUSH2 0x1836 SWAP2 SWAP1 PUSH2 0x20A9 JUMP JUMPDEST SWAP1 POP PUSH2 0x184D JUMP JUMPDEST PUSH1 0x32 DUP2 PUSH2 0x184A SWAP2 SWAP1 PUSH2 0x20A9 JUMP JUMPDEST SWAP1 POP JUMPDEST JUMPDEST JUMPDEST PUSH1 0x0 DUP3 PUSH2 0x100 ADD MLOAD SUB PUSH2 0x1870 JUMPI PUSH1 0x0 DUP2 PUSH2 0x1869 SWAP2 SWAP1 PUSH2 0x20A9 JUMP JUMPDEST SWAP1 POP PUSH2 0x18D4 JUMP JUMPDEST PUSH9 0x1158E460913D00000 DUP3 PUSH2 0x100 ADD MLOAD GT PUSH2 0x1899 JUMPI PUSH1 0xF DUP2 PUSH2 0x1892 SWAP2 SWAP1 PUSH2 0x20A9 JUMP JUMPDEST SWAP1 POP PUSH2 0x18D3 JUMP JUMPDEST PUSH9 0x2B5E3AF16B1880000 DUP3 PUSH2 0x100 ADD MLOAD GT PUSH2 0x18C2 JUMPI PUSH1 0x19 DUP2 PUSH2 0x18BB SWAP2 SWAP1 PUSH2 0x20A9 JUMP JUMPDEST SWAP1 POP PUSH2 0x18D2 JUMP JUMPDEST PUSH1 0x32 DUP2 PUSH2 0x18CF SWAP2 SWAP1 PUSH2 0x20A9 JUMP JUMPDEST SWAP1 POP JUMPDEST JUMPDEST JUMPDEST PUSH1 0x0 TIMESTAMP SWAP1 POP PUSH1 0x0 DUP4 PUSH1 0x80 ADD MLOAD SUB PUSH2 0x18F9 JUMPI PUSH1 0x5 DUP3 PUSH2 0x18F2 SWAP2 SWAP1 PUSH2 0x20A9 JUMP JUMPDEST SWAP2 POP PUSH2 0x19D8 JUMP JUMPDEST DUP1 PUSH20 0xFFFFFFFFFFFFFFFFFFFFFFFFFFFFFFFFFFFFFFFF AND PUSH3 0x13C680 DUP5 PUSH1 0x80 ADD MLOAD PUSH2 0x1923 SWAP2 SWAP1 PUSH2 0x20DF JUMP JUMPDEST GT ISZERO PUSH2 0x193D JUMPI PUSH1 0x0 DUP3 PUSH2 0x1936 SWAP2 SWAP1 PUSH2 0x20A9 JUMP JUMPDEST SWAP2 POP PUSH2 0x19D7 JUMP JUMPDEST DUP1 PUSH20 0xFFFFFFFFFFFFFFFFFFFFFFFFFFFFFFFFFFFFFFFF AND PUSH3 0x20F580 DUP5 PUSH1 0x80 ADD MLOAD PUSH2 0x1967 SWAP2 SWAP1 PUSH2 0x20DF JUMP JUMPDEST GT ISZERO PUSH2 0x1981 JUMPI PUSH1 0x4 DUP3 PUSH2 0x197A SWAP2 SWAP1 PUSH2 0x20A9 JUMP JUMPDEST SWAP2 POP PUSH2 0x19D6 JUMP JUMPDEST DUP1 PUSH20 0xFFFFFFFFFFFFFFFFFFFFFFFFFFFFFFFFFFFFFFFF AND PUSH3 0x3B5380 DUP5 PUSH1 0x80 ADD MLOAD PUSH2 0x19AB SWAP2 SWAP1 PUSH2 0x20DF JUMP JUMPDEST GT ISZERO PUSH2 0x19C5 JUMPI PUSH1 0x7 DUP3 PUSH2 0x19BE SWAP2 SWAP1 PUSH2 0x20A9 JUMP JUMPDEST SWAP2 POP PUSH2 0x19D5 JUMP JUMPDEST PUSH1 0xA DUP3 PUSH2 0x19D2 SWAP2 SWAP1 PUSH2 0x20A9 JUMP JUMPDEST SWAP2 POP JUMPDEST JUMPDEST JUMPDEST JUMPDEST DUP2 SWAP4 POP POP POP POP SWAP2 SWAP1 POP JUMP JUMPDEST PUSH1 0x0 PUSH1 0x1 PUSH1 0x0 SWAP1 SLOAD SWAP1 PUSH2 0x100 EXP SWAP1 DIV PUSH20 0xFFFFFFFFFFFFFFFFFFFFFFFFFFFFFFFFFFFFFFFF AND SWAP1 POP SWAP1 JUMP JUMPDEST PUSH2 0x1A15 PUSH2 0x1BCA JUMP JUMPDEST DUP1 PUSH1 0x2 PUSH1 0x0 PUSH2 0x100 EXP DUP2 SLOAD DUP2 PUSH20 0xFFFFFFFFFFFFFFFFFFFFFFFFFFFFFFFFFFFFFFFF MUL NOT AND SWAP1 DUP4 PUSH20 0xFFFFFFFFFFFFFFFFFFFFFFFFFFFFFFFFFFFFFFFF AND MUL OR SWAP1 SSTORE POP POP JUMP JUMPDEST PUSH2 0x1A61 PUSH2 0x1BCA JUMP JUMPDEST DUP1 PUSH1 0x1 PUSH1 0x0 PUSH2 0x100 EXP DUP2 SLOAD DUP2 PUSH20 0xFFFFFFFFFFFFFFFFFFFFFFFFFFFFFFFFFFFFFFFF MUL NOT AND SWAP1 DUP4 PUSH20 0xFFFFFFFFFFFFFFFFFFFFFFFFFFFFFFFFFFFFFFFF AND MUL OR SWAP1 SSTORE POP DUP1 PUSH20 0xFFFFFFFFFFFFFFFFFFFFFFFFFFFFFFFFFFFFFFFF AND PUSH2 0x1AC1 PUSH2 0x1DB JUMP JUMPDEST PUSH20 0xFFFFFFFFFFFFFFFFFFFFFFFFFFFFFFFFFFFFFFFF AND PUSH32 0x38D16B8CAC22D99FC7C124B9CD0DE2D3FA1FAEF420BFE791D8C362D765E22700 PUSH1 0x40 MLOAD PUSH1 0x40 MLOAD DUP1 SWAP2 SUB SWAP1 LOG3 POP JUMP JUMPDEST PUSH1 0x0 DUP1 PUSH1 0x0 SWAP1 SLOAD SWAP1 PUSH2 0x100 EXP SWAP1 DIV PUSH20 0xFFFFFFFFFFFFFFFFFFFFFFFFFFFFFFFFFFFFFFFF AND SWAP1 POP DUP2 PUSH1 0x0 DUP1 PUSH2 0x100 EXP DUP2 SLOAD DUP2 PUSH20 0xFFFFFFFFFFFFFFFFFFFFFFFFFFFFFFFFFFFFFFFF MUL NOT AND SWAP1 DUP4 PUSH20 0xFFFFFFFFFFFFFFFFFFFFFFFFFFFFFFFFFFFFFFFF AND MUL OR SWAP1 SSTORE POP DUP2 PUSH20 0xFFFFFFFFFFFFFFFFFFFFFFFFFFFFFFFFFFFFFFFF AND DUP2 PUSH20 0xFFFFFFFFFFFFFFFFFFFFFFFFFFFFFFFFFFFFFFFF AND PUSH32 0x8BE0079C531659141344CD1FD0A4F28419497F9722A3DAAFE3B4186F6B6457E0 PUSH1 0x40 MLOAD PUSH1 0x40 MLOAD DUP1 SWAP2 SUB SWAP1 LOG3 POP POP JUMP JUMPDEST PUSH2 0x1BD2 PUSH2 0x1C79 JUMP JUMPDEST PUSH20 0xFFFFFFFFFFFFFFFFFFFFFFFFFFFFFFFFFFFFFFFF AND PUSH2 0x1BF0 PUSH2 0x1DB JUMP JUMPDEST PUSH20 0xFFFFFFFFFFFFFFFFFFFFFFFFFFFFFFFFFFFFFFFF AND EQ PUSH2 0x1C46 JUMPI PUSH1 0x40 MLOAD PUSH32 0x8C379A000000000000000000000000000000000000000000000000000000000 DUP2 MSTORE PUSH1 0x4 ADD PUSH2 0x1C3D SWAP1 PUSH2 0x215F JUMP JUMPDEST PUSH1 0x40 MLOAD DUP1 SWAP2 SUB SWAP1 REVERT JUMPDEST JUMP JUMPDEST PUSH1 0x1 PUSH1 0x0 PUSH2 0x100 EXP DUP2 SLOAD SWAP1 PUSH20 0xFFFFFFFFFFFFFFFFFFFFFFFFFFFFFFFFFFFFFFFF MUL NOT AND SWAP1 SSTORE PUSH2 0x1C76 DUP2 PUSH2 0x1B06 JUMP JUMPDEST POP JUMP JUMPDEST PUSH1 0x0 CALLER SWAP1 POP SWAP1 JUMP JUMPDEST PUSH1 0x0 PUSH20 0xFFFFFFFFFFFFFFFFFFFFFFFFFFFFFFFFFFFFFFFF DUP3 AND SWAP1 POP SWAP2 SWAP1 POP JUMP JUMPDEST PUSH1 0x0 PUSH2 0x1CAC DUP3 PUSH2 0x1C81 JUMP JUMPDEST SWAP1 POP SWAP2 SWAP1 POP JUMP JUMPDEST PUSH2 0x1CBC DUP2 PUSH2 0x1CA1 JUMP JUMPDEST DUP3 MSTORE POP POP JUMP JUMPDEST PUSH1 0x0 PUSH1 0x20 DUP3 ADD SWAP1 POP PUSH2 0x1CD7 PUSH1 0x0 DUP4 ADD DUP5 PUSH2 0x1CB3 JUMP JUMPDEST SWAP3 SWAP2 POP POP JUMP JUMPDEST PUSH1 0x0 PUSH1 0x40 MLOAD SWAP1 POP SWAP1 JUMP JUMPDEST PUSH1 0x0 DUP1 REVERT JUMPDEST PUSH2 0x1CF5 DUP2 PUSH2 0x1CA1 JUMP JUMPDEST DUP2 EQ PUSH2 0x1D00 JUMPI PUSH1 0x0 DUP1 REVERT JUMPDEST POP JUMP JUMPDEST PUSH1 0x0 DUP2 CALLDATALOAD SWAP1 POP PUSH2 0x1D12 DUP2 PUSH2 0x1CEC JUMP JUMPDEST SWAP3 SWAP2 POP POP JUMP JUMPDEST PUSH1 0x0 PUSH1 0x20 DUP3 DUP5 SUB SLT ISZERO PUSH2 0x1D2E JUMPI PUSH2 0x1D2D PUSH2 0x1CE7 JUMP JUMPDEST JUMPDEST PUSH1 0x0 PUSH2 0x1D3C DUP5 DUP3 DUP6 ADD PUSH2 0x1D03 JUMP JUMPDEST SWAP2 POP POP SWAP3 SWAP2 POP POP JUMP JUMPDEST PUSH1 0x0 PUSH2 0xFFFF DUP3 AND SWAP1 POP SWAP2 SWAP1 POP JUMP JUMPDEST PUSH2 0x1D5C DUP2 PUSH2 0x1D45 JUMP JUMPDEST DUP3 MSTORE POP POP JUMP JUMPDEST PUSH1 0x0 PUSH1 0x20 DUP3 ADD SWAP1 POP PUSH2 0x1D77 PUSH1 0x0 DUP4 ADD DUP5 PUSH2 0x1D53 JUMP JUMPDEST SWAP3 SWAP2 POP POP JUMP JUMPDEST PUSH1 0x0 DUP3 DUP3 MSTORE PUSH1 0x20 DUP3 ADD SWAP1 POP SWAP3 SWAP2 POP POP JUMP JUMPDEST PUSH32 0x4F776E61626C6532537465703A2063616C6C6572206973206E6F742074686520 PUSH1 0x0 DUP3 ADD MSTORE PUSH32 0x6E6577206F776E65720000000000000000000000000000000000000000000000 PUSH1 0x20 DUP3 ADD MSTORE POP JUMP JUMPDEST PUSH1 0x0 PUSH2 0x1DEA PUSH1 0x29 DUP4 PUSH2 0x1D7D JUMP JUMPDEST SWAP2 POP PUSH2 0x1DF5 DUP3 PUSH2 0x1D8E JUMP JUMPDEST PUSH1 0x40 DUP3 ADD SWAP1 POP SWAP2 SWAP1 POP JUMP JUMPDEST PUSH1 0x0 PUSH1 0x20 DUP3 ADD SWAP1 POP DUP2 DUP2 SUB PUSH1 0x0 DUP4 ADD MSTORE PUSH2 0x1E19 DUP2 PUSH2 0x1DDD JUMP JUMPDEST SWAP1 POP SWAP2 SWAP1 POP JUMP JUMPDEST PUSH1 0x0 DUP1 REVERT JUMPDEST PUSH1 0x0 PUSH1 0x1F NOT PUSH1 0x1F DUP4 ADD AND SWAP1 POP SWAP2 SWAP1 POP JUMP JUMPDEST PUSH32 0x4E487B7100000000000000000000000000000000000000000000000000000000 PUSH1 0x0 MSTORE PUSH1 0x41 PUSH1 0x4 MSTORE PUSH1 0x24 PUSH1 0x0 REVERT JUMPDEST PUSH2 0x1E6E DUP3 PUSH2 0x1E25 JUMP JUMPDEST DUP2 ADD DUP2 DUP2 LT PUSH8 0xFFFFFFFFFFFFFFFF DUP3 GT OR ISZERO PUSH2 0x1E8D JUMPI PUSH2 0x1E8C PUSH2 0x1E36 JUMP JUMPDEST JUMPDEST DUP1 PUSH1 0x40 MSTORE POP POP POP JUMP JUMPDEST PUSH1 0x0 PUSH2 0x1EA0 PUSH2 0x1CDD JUMP JUMPDEST SWAP1 POP PUSH2 0x1EAC DUP3 DUP3 PUSH2 0x1E65 JUMP JUMPDEST SWAP2 SWAP1 POP JUMP JUMPDEST PUSH2 0x1EBA DUP2 PUSH2 0x1D45 JUMP JUMPDEST DUP2 EQ PUSH2 0x1EC5 JUMPI PUSH1 0x0 DUP1 REVERT JUMPDEST POP JUMP JUMPDEST PUSH1 0x0 DUP2 MLOAD SWAP1 POP PUSH2 0x1ED7 DUP2 PUSH2 0x1EB1 JUMP JUMPDEST SWAP3 SWAP2 POP POP JUMP JUMPDEST PUSH1 0x0 DUP2 SWAP1 POP SWAP2 SWAP1 POP JUMP JUMPDEST PUSH2 0x1EF0 DUP2 PUSH2 0x1EDD JUMP JUMPDEST DUP2 EQ PUSH2 0x1EFB JUMPI PUSH1 0x0 DUP1 REVERT JUMPDEST POP JUMP JUMPDEST PUSH1 0x0 DUP2 MLOAD SWAP1 POP PUSH2 0x1F0D DUP2 PUSH2 0x1EE7 JUMP JUMPDEST SWAP3 SWAP2 POP POP JUMP JUMPDEST PUSH1 0x0 PUSH2 0x160 DUP3 DUP5 SUB SLT ISZERO PUSH2 0x1F2A JUMPI PUSH2 0x1F29 PUSH2 0x1E20 JUMP JUMPDEST JUMPDEST PUSH2 0x1F35 PUSH2 0x160 PUSH2 0x1E96 JUMP JUMPDEST SWAP1 POP PUSH1 0x0 PUSH2 0x1F45 DUP5 DUP3 DUP6 ADD PUSH2 0x1EC8 JUMP JUMPDEST PUSH1 0x0 DUP4 ADD MSTORE POP PUSH1 0x20 PUSH2 0x1F59 DUP5 DUP3 DUP6 ADD PUSH2 0x1EC8 JUMP JUMPDEST PUSH1 0x20 DUP4 ADD MSTORE POP PUSH1 0x40 PUSH2 0x1F6D DUP5 DUP3 DUP6 ADD PUSH2 0x1EFE JUMP JUMPDEST PUSH1 0x40 DUP4 ADD MSTORE POP PUSH1 0x60 PUSH2 0x1F81 DUP5 DUP3 DUP6 ADD PUSH2 0x1EFE JUMP JUMPDEST PUSH1 0x60 DUP4 ADD MSTORE POP PUSH1 0x80 PUSH2 0x1F95 DUP5 DUP3 DUP6 ADD PUSH2 0x1EFE JUMP JUMPDEST PUSH1 0x80 DUP4 ADD MSTORE POP PUSH1 0xA0 PUSH2 0x1FA9 DUP5 DUP3 DUP6 ADD PUSH2 0x1EFE JUMP JUMPDEST PUSH1 0xA0 DUP4 ADD MSTORE POP PUSH1 0xC0 PUSH2 0x1FBD DUP5 DUP3 DUP6 ADD PUSH2 0x1EFE JUMP JUMPDEST PUSH1 0xC0 DUP4 ADD MSTORE POP PUSH1 0xE0 PUSH2 0x1FD1 DUP5 DUP3 DUP6 ADD PUSH2 0x1EC8 JUMP JUMPDEST PUSH1 0xE0 DUP4 ADD MSTORE POP PUSH2 0x100 PUSH2 0x1FE6 DUP5 DUP3 DUP6 ADD PUSH2 0x1EFE JUMP JUMPDEST PUSH2 0x100 DUP4 ADD MSTORE POP PUSH2 0x120 PUSH2 0x1FFC DUP5 DUP3 DUP6 ADD PUSH2 0x1EFE JUMP JUMPDEST PUSH2 0x120 DUP4 ADD MSTORE POP PUSH2 0x140 PUSH2 0x2012 DUP5 DUP3 DUP6 ADD PUSH2 0x1EC8 JUMP JUMPDEST PUSH2 0x140 DUP4 ADD MSTORE POP SWAP3 SWAP2 POP POP JUMP JUMPDEST PUSH1 0x0 PUSH2 0x160 DUP3 DUP5 SUB SLT ISZERO PUSH2 0x2036 JUMPI PUSH2 0x2035 PUSH2 0x1CE7 JUMP JUMPDEST JUMPDEST PUSH1 0x0 PUSH2 0x2044 DUP5 DUP3 DUP6 ADD PUSH2 0x1F13 JUMP JUMPDEST SWAP2 POP POP SWAP3 SWAP2 POP POP JUMP JUMPDEST PUSH1 0x0 PUSH1 0x20 DUP3 DUP5 SUB SLT ISZERO PUSH2 0x2063 JUMPI PUSH2 0x2062 PUSH2 0x1CE7 JUMP JUMPDEST JUMPDEST PUSH1 0x0 PUSH2 0x2071 DUP5 DUP3 DUP6 ADD PUSH2 0x1EC8 JUMP JUMPDEST SWAP2 POP POP SWAP3 SWAP2 POP POP JUMP JUMPDEST PUSH32 0x4E487B7100000000000000000000000000000000000000000000000000000000 PUSH1 0x0 MSTORE PUSH1 0x11 PUSH1 0x4 MSTORE PUSH1 0x24 PUSH1 0x0 REVERT JUMPDEST PUSH1 0x0 PUSH2 0x20B4 DUP3 PUSH2 0x1D45 JUMP JUMPDEST SWAP2 POP PUSH2 0x20BF DUP4 PUSH2 0x1D45 JUMP JUMPDEST SWAP3 POP DUP3 DUP3 ADD SWAP1 POP PUSH2 0xFFFF DUP2 GT ISZERO PUSH2 0x20D9 JUMPI PUSH2 0x20D8 PUSH2 0x207A JUMP JUMPDEST JUMPDEST SWAP3 SWAP2 POP POP JUMP JUMPDEST PUSH1 0x0 PUSH2 0x20EA DUP3 PUSH2 0x1EDD JUMP JUMPDEST SWAP2 POP PUSH2 0x20F5 DUP4 PUSH2 0x1EDD JUMP JUMPDEST SWAP3 POP DUP3 DUP3 ADD SWAP1 POP DUP1 DUP3 GT ISZERO PUSH2 0x210D JUMPI PUSH2 0x210C PUSH2 0x207A JUMP JUMPDEST JUMPDEST SWAP3 SWAP2 POP POP JUMP JUMPDEST PUSH32 0x4F776E61626C653A2063616C6C6572206973206E6F7420746865206F776E6572 PUSH1 0x0 DUP3 ADD MSTORE POP JUMP JUMPDEST PUSH1 0x0 PUSH2 0x2149 PUSH1 0x20 DUP4 PUSH2 0x1D7D JUMP JUMPDEST SWAP2 POP PUSH2 0x2154 DUP3 PUSH2 0x2113 JUMP JUMPDEST PUSH1 0x20 DUP3 ADD SWAP1 POP SWAP2 SWAP1 POP JUMP JUMPDEST PUSH1 0x0 PUSH1 0x20 DUP3 ADD SWAP1 POP DUP2 DUP2 SUB PUSH1 0x0 DUP4 ADD MSTORE PUSH2 0x2178 DUP2 PUSH2 0x213C JUMP JUMPDEST SWAP1 POP SWAP2 SWAP1 POP JUMP INVALID LOG2 PUSH5 0x6970667358 0x22 SLT KECCAK256 SMOD 0xC8 0xCE ADDRESS 0x4E PUSH30 0x56D2D932251A5BE9E17B340E8A910228C869A8050FED26EEED3C64736F6C PUSH4 0x43000812 STOP CALLER "
		},
		"gasEstimates": {
			"creation": {
				"codeDepositCost": "1725800",
				"executionCost": "infinite",
				"totalCost": "infinite"
			},
			"external": {
				"acceptOwnership()": "54681",
				"getScore(address)": "infinite",
				"owner()": "2567",
				"pendingOwner()": "2544",
				"renounceOwnership()": "54670",
				"setActivity(address)": "27030",
				"transferOwnership(address)": "infinite"
			}
		},
		"methodIdentifiers": {
			"acceptOwnership()": "79ba5097",
			"getScore(address)": "d47875d0",
			"owner()": "8da5cb5b",
			"pendingOwner()": "e30c3978",
			"renounceOwnership()": "715018a6",
			"setActivity(address)": "e3f43fdb",
			"transferOwnership(address)": "f2fde38b"
		}
	},
	"abi": [
		{
			"inputs": [],
			"stateMutability": "nonpayable",
			"type": "constructor"
		},
		{
			"anonymous": false,
			"inputs": [
				{
					"indexed": true,
					"internalType": "address",
					"name": "previousOwner",
					"type": "address"
				},
				{
					"indexed": true,
					"internalType": "address",
					"name": "newOwner",
					"type": "address"
				}
			],
			"name": "OwnershipTransferStarted",
			"type": "event"
		},
		{
			"anonymous": false,
			"inputs": [
				{
					"indexed": true,
					"internalType": "address",
					"name": "previousOwner",
					"type": "address"
				},
				{
					"indexed": true,
					"internalType": "address",
					"name": "newOwner",
					"type": "address"
				}
			],
			"name": "OwnershipTransferred",
			"type": "event"
		},
		{
			"inputs": [],
			"name": "acceptOwnership",
			"outputs": [],
			"stateMutability": "nonpayable",
			"type": "function"
		},
		{
			"inputs": [
				{
					"internalType": "address",
					"name": "user",
					"type": "address"
				}
			],
			"name": "getScore",
			"outputs": [
				{
					"internalType": "uint16",
					"name": "",
					"type": "uint16"
				}
			],
			"stateMutability": "view",
			"type": "function"
		},
		{
			"inputs": [],
			"name": "owner",
			"outputs": [
				{
					"internalType": "address",
					"name": "",
					"type": "address"
				}
			],
			"stateMutability": "view",
			"type": "function"
		},
		{
			"inputs": [],
			"name": "pendingOwner",
			"outputs": [
				{
					"internalType": "address",
					"name": "",
					"type": "address"
				}
			],
			"stateMutability": "view",
			"type": "function"
		},
		{
			"inputs": [],
			"name": "renounceOwnership",
			"outputs": [],
			"stateMutability": "nonpayable",
			"type": "function"
		},
		{
			"inputs": [
				{
					"internalType": "address",
					"name": "activity_",
					"type": "address"
				}
			],
			"name": "setActivity",
			"outputs": [],
			"stateMutability": "nonpayable",
			"type": "function"
		},
		{
			"inputs": [
				{
					"internalType": "address",
					"name": "newOwner",
					"type": "address"
				}
			],
			"name": "transferOwnership",
			"outputs": [],
			"stateMutability": "nonpayable",
			"type": "function"
		}
	]
}